:100000000C9483000C94AB000C94AB000C94AB00EC
:100010000C94AB000C94AB000C9427130C94AB0025
:100020000C94AB000C94AB000C94AB000C94A40F9C
:100030000C94AB000C94AB000C94AB000C94AB0094
:100040000C945A0F0C94AB000C946F0E0C94490E48
:100050000C94AB000C94AB000C94AB000C94AB0074
:100060000C94A2090C94AB000918091809181A1865
:10007000B718C618091809181A18B718084AD73B2C
:100080003BCE016E84BCBFFDC12F3D6C74319ABD67
:1000900056833DDA3D00C77F11BED9E4BB4C3E918B
:1000A0006BAAAABE000000803F00000000002300F1
:1000B0002600290000000000240027002A0000007C
:1000C0000000250028002B00040404040404040498
:1000D00002020202020203030303030301020408F3
:1000E00010204080010204081020010204081020A2
:1000F00000000008000201000003040700000000E7
:1001000000000000831911241FBECFEFD8E0DEBF2E
:10011000CDBF11E0A0E0B1E0E8ECF3E402C005904F
:100120000D92AA3FB107D9F724E0AAEFB1E001C0D0
:100130001D92A431B207E1F710E0C3E8D0E004C09B
:100140002197FE010E949720C238D107C9F70E946B
:100150003D1C0C94E2210C940000CF93DF93CDB7AB
:10016000DEB7C758D1090FB6F894DEBF0FBECDBFBA
:100170008091EA038C30A8F491E0980F9093EA0301
:10018000EA968FAFEA9790E0FC01EE0FFF1F8E0F0B
:100190009F1FFC01EE53FD4F88EB9BE09283818310
:1001A00004C08FEFEA968FAFEA97EA968FADEA9791
:1001B0008C3008F055C061E089E00E94F90EEA96A3
:1001C0008FADEA97E82FF0E09F01220F331FE20F77
:1001D000F31FEE53FD4F9081907C99609083EB96D6
:1001E0001FAEEB97EC961FAEEC976CE00E948B2055
:1001F0002CE0829FB001112440E050E09B01240FCD
:10020000351FF901EE0FFF1F2E0F3F1FF901EE53AF
:10021000FD4F908196FD16C04F5F5F4F4C305105EA
:1002200069F781110FC01092800082E080938100F5
:100230001092850010928400B19A80916F008260C4
:1002400080936F00EA96EFADEA97F0E0CF01880F58
:10025000991FE80FF91FEE53FD4F80818064808362
:1002600068EE73E0CE0187589F4F0E94440B88E1EF
:1002700091E0AC969FAF8EAFAC9789E390E3A0E09E
:10028000B0E0E1968CAF9DAFAEAFBFAFE197E39624
:100290001FAE1EAEE39781E0E8968FAFE89786E445
:1002A00091E00E94FB0C8FB7F8948090EB03909044
:1002B000EC03A090ED03B090EE038FBF11E009E6D0
:1002C000198E1A8E1B8E1C8E1D8E1E8E1F8E18A2CE
:1002D00019A21AA21BA21CA219AA1DA21EA21FA229
:1002E00018A619A61AA61BA61CA61DA61EA61FA602
:1002F00018AA1AAA1BAA1CAA1DAA0E94090D1093CB
:1003000055020093770210925602109278026FE025
:100310008BEC93E00E9470060E94C30B1093550271
:1003200000937702109256021092780261E070E01A
:1003300089E690E00E947A0B8BEC93E00E942706FE
:10034000782E0E94C30B33ED73128DC24FEA60E228
:10035000CE0101960E94FC1040E061E2CE010196C0
:100360000E94FC1048E062E2CE0101960E94FC105F
:1003700040E263E2CE0101960E94FC1089E29CE516
:10038000AFE8BDE38EAB9FABA8AFB9AF40E064E28E
:10039000CE0101960E94FC1013E5E9961FAFE99784
:1003A000E8968FADE897882319F00E94090D24C0C4
:1003B00061E0E7968FADE7970E94F90E61E0E7965E
:1003C0008FADE7970E94CA0E61E0E4968FADE49787
:1003D0000E94F90E61E0E4968FADE4970E94CA0E88
:1003E00061E0E5968FADE5970E94F90E60E0E69634
:1003F0008FADE6970E94F90E60E0CE0186599F4FBF
:100400000E94AB0C853E09F037C248E06DE2CE0198
:1004100086599F4F0E94700C64E6CE0101960E949F
:10042000A20761E3CE0186599F4F0E94AB0C807FEB
:10043000482F4B6061E3CE0186599F4F0E94700C9C
:1004400083E090E0E3969FAF8EAFE397BE016F5FCE
:100450007F4FCE018A5B9F4F0E94651089A94EA8ED
:100460005FA868AC79AC882389F1298D3A8D4B8DD2
:100470005C8D69817A818B819C810E94AF1EA30172
:1004800092010E94CF1D6D877E878F87988B2D8D5F
:100490003E8D4F8D58A16D817E818F8198850E9400
:1004A000AF1EA30192010E94CF1D698B7A8B8B8BAB
:1004B0009C8B29A13AA14BA15CA169857A858B858A
:1004C0009C850E94AF1EA30192011EC0A301920150
:1004D00069817A818B819C810E94CF1D6D877E8787
:1004E0008F87988BA30192016D817E818F81988582
:1004F0000E94CF1D698B7A8B8B8B9C8BA301920101
:1005000069857A858B859C850E94CF1D6D8B7E8B3E
:100510008F8B988F20E030E0A9016AA97BA98CA974
:100520009DA90E941A2018160CF05DC04D845E84AF
:100530006F84788820E030E0A901C301B2010E94F5
:100540001A20181624F077FA709477F87094A301A3
:1005500092016DA17EA18FA198A50E941A20181664
:1005600024F41D861E861F86188A49885A886B883F
:100570007C8820E030E0A901C301B2010E941A206A
:10058000181624F077FA709477F87094A30192010A
:1005900069A57AA58BA59CA50E941A20181624F49B
:1005A000198A1A8A1B8A1C8A4D885E886F88788C03
:1005B00020E030E0A901C301B2010E941A20181600
:1005C00024F077FA709477F87094A30192016DA5E6
:1005D0007EA58FA598A90E941A20181624F41D8ABA
:1005E0001E8A1F8A188E8D859E85AF85B889C4584E
:1005F000DF4F88839983AA83BB83CC57D040BE0149
:100600006A5B7F4FCE0186599F4F0E94F0068FB7DD
:10061000F8942091EB033091EC034091ED0350915D
:10062000EE03C058DF4F288339834A835B83C05869
:10063000D0408FBFCA01B901681979098A099B099D
:100640000E946E1D20E030E04AE754E40E944B1FF8
:100650004B015C016E964CAC5DAC6EAC7FAC6E97A2
:10066000A6966CAD7DAD8EAD9FADA6979B01AC01FE
:100670000E94CF1DCC57DF4F688379838A839B8389
:10068000C458D040A3019201C301B2010E94CF1D02
:100690009B01AC01CC57DF4F688179818A819B81B6
:1006A000C458D0400E94B01E0E942D209B01AC0176
:1006B000A2966CAD7DAD8EAD9FADA2970E944B1FF3
:1006C0000E941C1F2B013C01C458DF4F2881398137
:1006D0004A815B81CC57D040C501B4010E94CF1D37
:1006E000A70196010E94B01E28E431EE4AE75FE3BD
:1006F0000E94CF1D6B017C0120EE3EE245E652E4F4
:10070000C301B2010E94CF1D2AE037ED43EA5CE34A
:100710000E94CF1DA70196010E94B01E6B017C01B3
:10072000209102023091030240910402509105028F
:100730000E94AF1E2B013C012AE037ED43EA5BE348
:100740000E94CF1D2091FE013091FF0140910002D7
:10075000509101020E94B01EC458DF4F6883798314
:100760008A839B83CC57D0406093FE017093FF0136
:1007700080930002909301022091FA013091FB01D5
:100780004091FC015091FD01C301B2010E94AF1ED6
:10079000A50194010E944B1F23E333E343E050E49F
:1007A0000E94CF1D4B015C0123E333E343E650E499
:1007B000C301B2010E94CF1DC458DF4F2881398187
:1007C0004A815B81CC57D0400E94B01E9B01AC0196
:1007D000C501B4010E94B01E4B015C01B7FAB09490
:1007E000B7F8B09420E030E0A901C501B4010E943F
:1007F000691D87FD11C020E030E04AE754E4C501DF
:10080000B4010E941A20181654F4812C912C8AE706
:10081000A82E84E4B82E03C0812C912C540120E032
:1008200030E04DE854E4C501B4010E94B01E0E94BE
:10083000BD1FCE0187589F4F0E94440B4092FA0182
:100840005092FB016092FC017092FD0181E090E00A
:100850000E94E415C058DF4F88809980AA80BB8031
:10086000C058D040F3CD80E591E00E94FB0C8FE1B1
:1008700090E00E94E41524CD86E891E00E94FB0CF4
:100880008FE190E00E94E41588CDCF93DF93CDB740
:10089000DEB7E4970FB6F894DEBF0FBECDBF8EE390
:1008A00090E00E94E415CE01C2969BAB8AAB9AE021
:1008B000892E912CA12CB12C8EE293E00E94960DF2
:1008C000181619060CF037C18E010E5D1F4FF02E61
:1008D000E12E2FB7F8948091EB039091EC03A09157
:1008E000ED03B091EE032FBF80933603909337034F
:1008F000A0933803B09339038EE293E00E94740D05
:1009000097FF1EC12FB7F8948091EB039091EC03F1
:10091000A091ED03B091EE032FBF409136035091AB
:1009200037036091380370913903841B950BA60B34
:10093000B70B4091320350913303609134037091AF
:10094000350384179507A607B707B0F28F2D9E2DA4
:100950000E94431D8B3FEFEF9E0734F087349105D3
:100960002CF086E490E002C08BEF9FEFBC01990F62
:10097000880B990B0E94701D609302027093030212
:1009800080930402909305028BEB91E00E94E90CA6
:10099000C0900202D0900302E0900402F0900502A1
:1009A000A7019601C701B6010E947120882319F0A2
:1009B0008BEC91E01AC026013701E89477F82FEF0D
:1009C0003FEF4FE75FE7C301B2010E947120811141
:1009D0000FC02FEF3FEF4FE75FE7C301B2010E9467
:1009E000691D18162CF48FEC91E00E94E90C9BC055
:1009F0002FEF3FEF4FE75FE4C701B6010E941A20D7
:100A000018161CF483ED91E0F0CF2FEF3FEF4FE786
:100A10005FECC701B6010E94691D87FDF3CF20E09E
:100A200030E0A901C701B6010E94691D87FF09C016
:100A30006DE28EE293E00E94CE0DF7FAF094F7F8A3
:100A4000F0942AE037ED43EA5BE3C701B6010E9468
:100A5000B01E2B013C010E94C41F6B017C010E944F
:100A60006E1D9B01AC01C301B2010E94AF1E1B01B0
:100A70002C0119A28E010F5D1F4F0CAB712EC70107
:100A8000B601A50194010E948D1E69017A01605D85
:100A9000F80162938F01232B242B252B81F7CF01A3
:100AA0000E94E90C6EE28EE293E00E94CE0D83E09C
:100AB000F82EFA94FF20B9F120E030E040E251E452
:100AC000C201B1010E94CF1D1B012C010E94C41F55
:100AD0009B0140E050E019A20CA9172D662EC32EF1
:100AE000D42EE52ECA01B901A50194010E948D1EE4
:100AF000605DF80162938F012115310541055105B3
:100B000089F7CF010E94E90C662D7C2D8D2D9E2D3D
:100B10000E946E1D9B01AC01C201B1010E94AF1E7B
:100B20001B012C01C6CF87ED91E00E94E90C8EE2FB
:100B300093E00E941B0E8FE190E00E94E415BCCE72
:100B4000F80181938F018AA99BA98E179F0709F04D
:100B5000C0CEFCCEEEE2F3E0A089B18982E08C93B6
:100B6000A485B5851C92A685B78580E18C93108EEF
:100B7000A489B58986E08C93A289B3898C91806120
:100B80008C93A289B3898C9188608C93A289B38954
:100B90008C9180688C930288F389E02D80818F7D11
:100BA000808321E040E851E06AED71E08DEA90E059
:100BB0000E94BC1922E040E850E06EED71E085E44F
:100BC00094E00C94BC1985ED8093BC008091BC002E
:100BD00084FDFCCF10929F02089540912B02262F96
:100BE00030E0240F311D21323105DCF420919F02C9
:100BF0002430C9F4FC0180E090E0861758F430916D
:100C00002B022191DC01A55FBD4FA30FB11D2C93D9
:100C10000196F3CF80912B02680F60932B0280E046
:100C2000089581E0089582E0089508950895089553
:100C3000E091A1028091A002E81730F4F0E0EE55B7
:100C4000FD4F808190E008958FEF9FEF0895909180
:100C5000A1028091A002981750F4E92FF0E0EE5520
:100C6000FD4F208130E09F5F9093A10202C02FEFE3
:100C70003FEFC90108958091A00290E02091A10268
:100C8000821B91090895CF92DF92EF92FF920F930A
:100C90001F93CF93DF937C01CB018A0120915502F2
:100CA000222389F0EB016B01C40ED51ECC15DD05A6
:100CB00069F06991D701ED91FC910190F081E02DEF
:100CC000C7010995F3CF642F0E94ED05C801DF919C
:100CD000CF911F910F91FF90EF90DF90CF900895EB
:100CE000CF93DF931F92CDB7DEB769832091550272
:100CF0002223D1F020917802203240F021E030E030
:100D0000FC013383228380E090E015C0809156027D
:100D1000E82FF0E0E95AFD4F998190838F5F80932F
:100D200056028093780205C061E0CE0101960E94D0
:100D3000ED0581E090E00F90DF91CF910895089547
:100D400080E090E00895089508950C9435210F9364
:100D50001F93CF93DF938C01EB0188E2FB0111928B
:100D60008A95E9F74BE050E065EE71E0CE010E9414
:100D7000D3211B8681E090E0A0E0B0E08C879D87C6
:100D8000AE87BF87F8014381548165817681488BA6
:100D9000598B6A8B7B8B8C8B9D8BAE8BBF8B1CA2F4
:100DA0001DA21EA21FA28AE098EEACE1B3EC888FD0
:100DB000998FAA8FBB8F8AE098EEACE1B3E48C8F59
:100DC0009D8FAE8FBF8F83EA9FEAA0E2BDE388A329
:100DD00099A3AAA3BBA3DF91CF911F910F9108956F
:100DE0000F931F93CF93DF938C01EB0184E2FB0100
:100DF00011928A95E9F784E290E0A0E0B0E0888360
:100E00009983AA83BB83F80183819481A581B681EC
:100E10008C839D83AE83BF8381E090E0A0E0B0E04F
:100E200088879987AA87BB87188A198A1A8A1B8A92
:100E300062E3C8010E941F0CBC01990F880B990B3B
:100E40000E94701D2FE632E143E85BE30E94CF1D54
:100E50002AE038EE4CE151E40E94CF1D6C8B7D8B73
:100E60008E8B9F8B64E3C8010E941F0CBC01990FFD
:100E7000880B990B0E94701D2FE632E143E85BE37B
:100E80000E94CF1D2AE038EE4CE151E40E94CF1DB4
:100E9000688F798F8A8F9B8F66E3C8010E941F0C31
:100EA000BC01990F880B990B0E94701D2FE632E14F
:100EB00043E85BE30E94CF1D2AE038EE4CE151E4A9
:100EC0000E94CF1D6C8F7D8F8E8F9F8F81E0DF9171
:100ED000CF911F910F91089580910802882349F1C5
:100EE0000E942113C091F3020E94B814CC23A1F3F5
:100EF0000FB6F8940F92E091F802F091F902C681D2
:100F0000D781CE0102960E942A1380912D03815031
:100F100080932D03809108028150809308020F90E6
:100F20000FBE8F89988D0E947716CE010E9477168A
:100F3000D3CF80910503823010F00E94F2130E94FB
:100F40003D0ECACF2F923F924F925F926F927F9247
:100F50008F929F92AF92BF92CF92DF92EF92FF92C9
:100F60000F931F93CF93DF93CDB7DEB7A4970FB640
:100F7000F894DEBF0FBECDBF1C01062F81E0D1016A
:100F8000D0968C9310E01D8E1E8E1F8E18A2198E87
:100F90001A8E1B8E1C8E1D8A1E8A1F8A188E198A15
:100FA0001A8A1B8A1C8A1D861E861F86188A812C17
:100FB000912C5401101709F49CC0B101CE01019687
:100FC0000E946510F1014080518062807380A3010E
:100FD0009201C501B4010E94B01E4B015C01D10118
:100FE0001496CD90DD90ED90FC901797A701960197
:100FF0006D857E858F8598890E94B01E6D877E875E
:101000008F87988BD10118968D919D910D90BC91F1
:10101000A02D89A39AA3ABA3BCA39C01AD016989B0
:101020007A898B899C890E94B01E698B7A8B8B8B05
:101030009C8BA3019201C301B2010E94CF1D9B01B1
:10104000AC016D897E898F89988D0E94B01E6D8B51
:101050007E8B8F8B988FA7019601C701B6010E94E6
:10106000CF1D9B01AC01698D7A8D8B8D9C8D0E946B
:10107000B01E698F7A8F8B8F9C8F29A13AA14BA1CB
:101080005CA1CA01B9010E94CF1D9B01AC016D8D0D
:101090007E8D8F8D98A10E94B01E6D8F7E8F8F8F59
:1010A00098A30E94350F6B017C0185E0482E512CDE
:1010B000612C712C0E94350FDC01CB018C199D092C
:1010C000AE09BF09883E9340A105B10598F3B1E090
:1010D0004B1A510861087108E8EECE0EE3E0DE1EFF
:1010E000E11CF11C411451046104710419F71F5FE4
:1010F00061CF612F70E080E090E00E94701D6B0175
:101100007C019B01AC01C501B4010E944B1F2B0166
:101110003C01D10158966D937D938D939C935B9781
:10112000A70196016D857E858F8598890E944B1F4A
:101130006D877E878F87988BF101648F758F868F7F
:10114000978FA701960169897A898B899C890E946A
:101150004B1F4B015C01D10190966D937D938D9354
:101160009C939397A70196016D897E898F89988DAD
:101170000E944B1F698B7A8B8B8B9C8BA3019201F6
:10118000C301B2010E94CF1D9B01AC0169897A891C
:101190008B899C890E94AF1E0E942D20F10161AFB6
:1011A00072AF83AF94AFA7019601698D7A8D8B8D55
:1011B0009C8D0E944B1F2B013C012D853E854F8548
:1011C0005889CA01B9010E94CF1D9B01AC01C3011E
:1011D000B2010E94AF1E0E942D208101035C1F4FAF
:1011E000D8016D937D938D939C931397A7019601DE
:1011F0006D8D7E8D8F8D98A10E944B1F6B017C01A0
:10120000A5019401C501B4010E94CF1D9B01AC0151
:10121000C701B6010E94AF1E0E942D206101B1E4FA
:10122000CB0ED11CF6016083718382839383D1013D
:10123000D1968D909D90AD90BC90D49720E030E0F9
:10124000A901C501B4010E941A2018160CF061C052
:10125000C501B4010E94C41FF62E6623E9F1F10115
:1012600080A9811104C062E3C1010E94A2076F2D11
:1012700070E080E090E00E94701D4B015C019B01DA
:10128000AC01D101D9966D917D918D919C91DC97A6
:101290000E94CF1DF10164A375A386A397A3A501A6
:1012A0009401D8016D917D918D919C910E94CF1DEB
:1012B000F10160A771A782A793A7A5019401D601A8
:1012C0006D917D918D919C910E94CF1DF10164A73C
:1012D00075A786A797A712C0D10194961D921D925B
:1012E0001D921C929797F10110A611A612A613A6A3
:1012F0009C961D921D921D921C929F976F2D70E0DF
:1013000080E090E00E946E1DF10161AB72AB83AB97
:1013100094ABA4960FB6F894DEBF0FBECDBFDF919D
:10132000CF911F910F91FF90EF90DF90CF90BF90E2
:10133000AF909F908F907F906F905F904F903F9075
:101340002F9008951F920F920FB60F9211242F9392
:101350003F934F935F936F937F938F939F93AF933D
:10136000BF93EF93FF938091B900887F803609F493
:101370009CC068F5883209F45BC090F4803109F4B0
:1013800054C038F4882309F4F6C0883009F44DC0FD
:10139000F6C0883109F44CC0803209F45DC0EFC05A
:1013A000803409F468C048F4803309F455C08833A8
:1013B00009F0E5C080939D02D8C0803509F44FC084
:1013C000883509F45DC0883409F0D9C0D6C08839A1
:1013D00009F4C7C0A8F4883709F467C038F4883620
:1013E00009F463C0803709F460C0C9C0883809F4C3
:1013F000B8C0803909F45FC0803809F0C0C05BC054
:10140000803B09F486C038F4803A09F466C0883A13
:1014100009F47FC0B4C0803C09F4A7C0883C09F43B
:10142000A4C0883B09F48AC0AAC080919A0210C067
:1014300090919C0280919B02981770F5E0919C021C
:1014400081E08E0F80939C02F0E0E758FD4F808191
:101450008093BB0085EC86C080939D028EC0E09196
:101460009C0281E08E0F80939C028091BB00F0E093
:10147000E758FD4F808390919C0280919B026EC043
:10148000E0919C0281E08E0F80939C028091BB00D2
:10149000F0E0E758FD4F808380919E0281116DC07E
:1014A00081E08093990284EA61C083E080939F0287
:1014B00010924D02CFCF80914D02803208F051C082
:1014C000E0914D0281E08E0F80934D028091BB0030
:1014D000F0E0E35DFD4F8083BDCF85EC8093BC00E1
:1014E00010929F0280914D02803230F4E0914D02C3
:1014F000F0E0E35DFD4F108260914D0270E0E091FD
:101500005102F09152028DE292E0099510924D0243
:1015100036C084E080939F0210922C0210922B021E
:10152000E0915302F0915402099580912B028111B0
:1015300005C081E080932B0210920B02E0912C02F7
:1015400081E08E0F80932C02F0E0E55FFD4F8081FB
:101550008093BB0090912C0280912B02981708F485
:1015600079CF85E88093BC000AC085EC8093BC00ED
:1015700010929F0204C010929D020E94E305FF9109
:10158000EF91BF91AF919F918F917F916F915F91FB
:101590004F913F912F910F900FBE0F901F90189574
:1015A0004F925F926F927F928F929F92AF92BF9273
:1015B000CF92DF92EF92FF920F931F93CF93DF931F
:1015C000882E742E622E07E010E0912CEE24E39416
:1015D000F12CC62FD0E0CE0180519F4F6C01FE014F
:1015E000E452FF4F5F01C853DF4F990C60E0882D34
:1015F0000E94CA0EB701002E01C0660F0A94EAF7D6
:101600006621872D0E94CA0E61E0882D0E94CA0EB5
:10161000F6018491F5015490FE014490442071F04C
:1016200081110E94A10EE42DF0E0EE0FFF1FE655A0
:10163000FF4FA591B4918C915822A9F40150110942
:10164000A0F6892DDF91CF911F910F91FF90EF9020
:10165000DF90CF90BF90AF909F908F907F906F90D2
:101660005F904F900895892D8160982EE7CF259A3D
:101670002D9A2FEF80E792E0215080409040E1F7D3
:1016800000C000001D9AF5CFFC0190819C3088F5C8
:10169000818128E830E0281B310987FD3395220F2E
:1016A000331F220F331F6217730784F0828148E5CE
:1016B00052E0481B510987FD5395440F551F440FB5
:1016C000551F9B01461757070CF49A012250310908
:1016D000220F331F4FB7F894892F90E0FC01EE0FD3
:1016E000FF1F8E0F9F1FFC01EE53FD4F328321839E
:1016F0004FBF089590919F029111FCCF613208F085
:1017000060E291E090939F0290939E022FEF2093CE
:101710009D0210929C02260F20939B0290939A02A6
:1017200090919A02880F892B80939A028091990256
:10173000813061F41092990280919A028093BB00EB
:101740008091BC0083FDF8CF85EC01C085EE8093CD
:10175000BC0080919F028130E1F380919C0286174A
:1017600010F460919C02A9E7B2E0E2EAF2E080E0C6
:10177000861721F09D9191938F5FFACF1092A1026D
:101780008093A002089530917802313208F04BC066
:1017900080919F028111FCCF9091770222E02093EB
:1017A0009F0221E020939E022FEF20939D02109232
:1017B0009C0230939B02E7E5F2E0A9E7B2E020E06B
:1017C000321721F041914D932F5FFACF10929A0278
:1017D00020919A02990F922B90939A0290919902DC
:1017E000913061F41092990290919A029093BB000B
:1017F0009091BC0093FDF8CF95EC01C095EE9093CD
:10180000BC0090919F029230E1F390919D029F3F26
:1018100079F080919D02803241F080919D02803369
:1018200031F084E005C081E003C082E001C083E0C4
:1018300010925602109278021092550208950F935A
:101840001F93CF93DF93EC01162F8D85882321F111
:101850008E8591E090935502809377021092560204
:10186000109278028BEC93E00E9470060E94C30BEA
:101870008E8562E070E090E00E947A0B8BEC93E042
:101880000E942706C82F8BEC93E00E942706982F12
:1018900088278C010C2B1EC060E08C850E94CA0E2C
:1018A000212F206C4A856B8589850E94D00A2FEFF5
:1018B0004A856B8589850E94D00A082F2FEF4A85BB
:1018C0006B8589850E94D00A10E0182B61E08C8519
:1018D0000E94CA0EC801DF91CF911F910F91089508
:1018E0000F931F93CF93DF93EC01062F142F8D8559
:1018F0008823C9F08E8591E09093550280937702FA
:1019000010925602109278028BEC93E00E947006BF
:10191000612F8BEC93E00E947006DF91CF911F91B5
:101920000F910C94C30B60E08C850E94CA0E202F8F
:101930004A856B8589850E94D00A212F4A856B854F
:1019400089850E94D00A61E08C85DF91CF911F913B
:101950000F910C94CA0E1F93CF93DF93EC01162FB7
:101960008D858823D9F08E8591E0909355028093E0
:10197000770210925602109278028BEC93E00E944C
:1019800070060E94C30B8E8561E070E090E00E94BB
:101990007A0B8BEC93E00E94270617C060E08C85E1
:1019A0000E94CA0E212F20684A856B8589850E9476
:1019B000D00A2FEF4A856B8589850E94D00A182F9F
:1019C00061E08C850E94CA0E812FDF91CF911F911B
:1019D0000895009769F0FC0101900020E9F7319724
:1019E000AF01481B590BBC018EE293E00C943B0DF8
:1019F00080E090E00895CF93DF930E94E90CEC0122
:101A000087ED91E00E94E90C8C0F9D1FDF91CF9133
:101A100008951092A1021092A00210925602109204
:101A2000780210929F0281E080939E0210929902A8
:101A300061E082E10E94CA0E61E083E10E94CA0E69
:101A4000E9EBF0E080818E7F808380818D7F8083D1
:101A500088E48093B80085E48093BC0085E196E03B
:101A6000909354028093530286E196E09093520241
:101A7000809351020895CF92DF92EF92FF920F93DD
:101A80001F93CF93DF936C017A018B01C0E0D0E00C
:101A9000CE15DF0581F0D8016D918D01D601ED9154
:101AA000FC910190F081E02DC6010995892B11F080
:101AB0002196EECF7E01C701DF91CF911F910F914B
:101AC000FF90EF90DF90CF900895FC01538D448DEF
:101AD000252F30E0842F90E0821B930B541710F0D9
:101AE000CF96089501970895FC01918D828D9817E6
:101AF00061F0828DDF01A80FB11D5D968C91928DF2
:101B00009F5F9F73928F90E008958FEF9FEF0895EE
:101B1000FC01918D828D981731F0828DE80FF11DB7
:101B2000858D90E008958FEF9FEF0895FC01918DD2
:101B3000228D892F90E0805C9F4F821B91098F73CB
:101B4000992708958EE293E00E94960D21E0892B5B
:101B500009F420E0822F0895FC01848DDF01A80F95
:101B6000B11DA35ABF4F2C91848D90E001968F73C5
:101B70009927848FA689B7892C93A089B1898C91E4
:101B8000837080648C93938D848D981306C0028833
:101B9000F389E02D80818F7D80830895EF92FF92FD
:101BA0000F931F93CF93DF93EC0181E0888F9B8D80
:101BB0008C8D981305C0E889F989808185FD26C040
:101BC000F62E0B8D10E00F5F1F4F0F731127E02EC5
:101BD0008C8DE8120CC00FB607FCFACFE889F989A2
:101BE000808185FFF5CFCE010E94AC0DF1CF8B8DAA
:101BF000FE01E80FF11DE35AFF4FF0829FB7F89402
:101C00000B8FEA89FB89808180620AC09FB7F894B4
:101C1000EE89FF896083E889F98980818370806417
:101C200080839FBF81E090E0DF91CF911F910F9162
:101C3000FF90EF900895CF93DF93EC01888D882378
:101C4000C9F0EA89FB89808185FD05C0A889B98929
:101C50008C9186FD0FC00FB607FCF5CF808185FF04
:101C6000F2CFA889B9898C9185FFEDCFCE010E9472
:101C7000AC0DE7CFDF91CF91089580E090E0892B04
:101C800029F00E94A20D81110C94000008950E9479
:101C9000BE211F920F920FB60F9211242F933F93E4
:101CA0004F935F936F937F938F939F93AF93BF9364
:101CB000EF93FF938EE293E00E94AC0DFF91EF91C2
:101CC000BF91AF919F918F917F916F915F914F9154
:101CD0003F912F910F900FBE0F901F9018951F925C
:101CE0000F920FB60F9211242F938F939F93EF9320
:101CF000FF93E0913E03F0913F038081E091440324
:101D0000F091450382FD12C09081809147038F5F5F
:101D10008F7320914803821751F0E0914703F0E060
:101D2000E25DFC4F958F8093470301C08081FF9156
:101D3000EF919F918F912F910F900FBE0F901F9059
:101D40001895833081F028F4813099F08230A1F029
:101D500008958730A9F08830B9F08430D1F48091AB
:101D600080008F7D03C0809180008F7780938000FA
:101D7000089584B58F7702C084B58F7D84BD0895A2
:101D80008091B0008F7703C08091B0008F7D8093E9
:101D9000B00008951F93CF93DF93282F30E0F9010F
:101DA000E051FF4F8491F901E452FF4FD491F901C2
:101DB000E853FF4FC491CC23C1F0162F81110E942C
:101DC000A10EEC2FF0E0EE0FFF1FE254FF4FA591A4
:101DD000B4919FB7F894111104C08C91D095D82379
:101DE00002C0EC91DE2BDC939FBFDF91CF911F915E
:101DF0000895CF93DF9390E0FC01E452FF4F2491CC
:101E0000FC01E853FF4F8491882361F190E0880F33
:101E1000991FFC01EC54FF4FC591D491FC01E25491
:101E2000FF4FA591B491611109C09FB7F8948881C3
:101E3000209582238883EC912E230BC0623061F4BD
:101E40009FB7F8948881322F309583238883EC9153
:101E50002E2B2C939FBF06C08FB7F894E8812E2BB2
:101E600028838FBFDF91CF9108953FB7F894809179
:101E7000FA039091FB03A091FC03B091FD0326B5FA
:101E8000A89B05C02F3F19F00196A11DB11D3FBFB2
:101E9000BA2FA92F982F8827820F911DA11DB11D40
:101EA000BC01CD0142E0660F771F881F991F4A953C
:101EB000D1F708951F920F920FB60F9211242F930E
:101EC0003F938F939F93AF93BF938091EB03909138
:101ED000EC03A091ED03B091EE033091F90323E000
:101EE000230F2D3720F40196A11DB11D05C026E852
:101EF000230F0296A11DB11D2093F9038093EB03DC
:101F00009093EC03A093ED03B093EE038091FA035A
:101F10009091FB03A091FC03B091FD030196A11DDC
:101F2000B11D8093FA039093FB03A093FC03B0933D
:101F3000FD03BF91AF919F918F913F912F910F9092
:101F40000FBE0F901F9018951F920F920FB60F9211
:101F500011242F933F934F935F936F937F938F93AE
:101F60009F93AF93BF93EF93FF938091F80387FF05
:101F700005C010928500109284001BC02091F803C8
:101F8000022E000C330B8091EA0390E028173907EA
:101F900084F48091F803082E000C990BFC01EE0FDD
:101FA000FF1F8E0F9F1FFC01EE53FD4F808186FDAA
:101FB00015C08091F8038F5F8093F8032091F80398
:101FC000022E000C330B8091EA0390E028173907AA
:101FD000C4F48091F8038C3064F113C08091F8034D
:101FE000082E000C990BFC01EE0FFF1F8E0F9F1F98
:101FF000FC01EE53FD4F808160E08F730E94CA0E9A
:10200000D8CF8091840090918500049680349C49BB
:1020100018F480E49CE905C08091840090918500CB
:10202000049690938900809388008FEF8093F80343
:102030003BC020918400309185008091F803082EE8
:10204000000C990BFC01EE0FFF1F8E0F9F1FFC0170
:10205000EE53FD4F81819281820F931F90938900EF
:10206000809388008091F803082E000C990BFC01E6
:10207000EE0FFF1F8E0F9F1FFC01EE53FD4F80815F
:1020800086FF12C08091F803082E000C990BFC010A
:10209000EE0FFF1F8E0F9F1FFC01EE53FD4F80813F
:1020A00061E08F730E94CA0EFF91EF91BF91AF91D3
:1020B0009F918F917F916F915F914F913F912F9160
:1020C0000F900FBE0F901F9018954F925F926F92D6
:1020D0007F928F929F92AF92BF92CF92DF92EF92B8
:1020E000FF920F931F93CF93DF937C018B0181E0CD
:1020F0008093550289E680937702109256021092DF
:10210000780268EA8BEC93E00E9470060E94C30B91
:1021100066E070E089E690E00E947A0B8091A00270
:1021200090E02091A102821B910986309105ECF389
:102130008BEC93E00E942706582E8BEC93E00E94D4
:102140002706482E8BEC93E00E942706782E8BEC16
:1021500093E00E942706682E8BEC93E00E942706EE
:10216000982E8BEC93E00E942706882EB42CA12C8D
:10217000B5016529072E000C880B990B0E94701D74
:10218000F8016083718382839383D62CC12CB601BE
:102190006729072E000C880B990B0E94701DF8010F
:1021A0006483758386839783D82DF0E0CF2FBE019B
:1021B0006929072E000C880B990B0E94701DF801ED
:1021C00060877187828793878CE0D70101900D9299
:1021D0008A95E1F7C701DF91CF911F910F91FF9091
:1021E000EF90DF90CF90BF90AF909F908F907F90B7
:1021F0006F905F904F900895CF93C42F81E08093AC
:10220000550289E680937702109256021092780266
:102210008BEC93E00E9470066C2F8BEC93E00E9495
:102220007006CF910C94C30B0F920FB6F8940F92D7
:102230001F9211242F923F924F925F926F927F9242
:102240008F929F92AF92BF92CF92DF92EF92FF92C6
:102250000F931F932F933F934F935F936F937F93AE
:102260008F939F93AF93BF93CF93DF93EF93FF939E
:10227000A0912B03B0912C030DB60D920EB60D92CA
:1022800013BE8091F5038111F6C080914E029091AA
:102290004F02019690934F0280934E0220914E027E
:1022A00030914F022115310599F58091E802909106
:1022B000E9024091E6025091E7025093E90240930F
:1022C000E8029093E7028093E602809150028F5FCC
:1022D00080935002E091E802F091E902808181113F
:1022E00007C08FEF9FEF9093F4038093F30310C028
:1022F000E091E802F091E9020580F681E02D068088
:10230000F781E02D828193819093F4038093F3030E
:102310008091F3039091F4032817390708F49AC0C9
:1023200080E019E0E091E802F091E90290819111DA
:1023300007C02FEF3FEF3093F4032093F3038BC0DC
:10234000E091E802F091E9020580F681E02D068037
:10235000F781E02D428153812417350728F45093EB
:10236000F4034093F30377C0AF014E5F5F4FA28544
:10237000B38564817581E680F780EB01FD82EC8294
:10238000C681D7817B836A8311966D917C91129768
:102390004617570721F41296DC93CE9311971386B4
:1023A00012869C9191509C93A489B5891097F1F065
:1023B00066857785E088F188EB01FD82EC82C08933
:1023C000D1897B836A831196ED90FC901297BF01AF
:1023D000645F7F4FE616F70621F41296DC93CE93E6
:1023E0001197158A148A9C9191509C93A68990917B
:1023F00029039A1710F4A09329031A9FD0011124DE
:10240000BD016B5F7C4F7B01DB011196CD91DC91AF
:102410001297D583C4836C817D81778366836C81B9
:102420007D81DB0113965C934E9312975D834C8301
:10243000F386E286E70198819F5F9883A0912B0342
:10244000B0912C03468956969C91491708F46ACF9F
:1024500081E068CF80E0E0912B03F0912C03E689C6
:10246000D9E0ED9FF0011124EB5FFC4F9081923099
:1024700040F081E006C0809106028F5F80930602E3
:1024800080E090910702911103C0882309F46FC086
:102490008091F503882321F081E08093070267C0D3
:1024A00010920702A0912B03B0912C03E0912B0313
:1024B000F0912C032D913C918789908D8217930781
:1024C000D8F080912B0390912C0380912B03909155
:1024D0002C03259A2D9A2FEF67EA71E62150604070
:1024E0007040E1F700C000001D9AF5CF80912903EC
:1024F00081508093290301C099E0E09129039E9FB8
:10250000F0011124EB5FFC4F8081882379F38091E7
:10251000290390E049E0489F9001499F300D112424
:10252000F901EB5FFC4FA181B28112960D90BC9135
:10253000A02DB283A183285F3C4FA217B30731F4CB
:1025400012962D913C9113973283218329E0289F85
:10255000F001299FF00D1124EB5FFC4F0180F28107
:10256000E02D8681978190932C0380932B03A0917B
:102570002B03B0912C03CD91CDBFDD91DEBFFF9138
:10258000EF91DF91CF91BF91AF919F918F917F910B
:102590006F915F914F913F912F911F910F91FF90FC
:1025A000EF90DF90CF90BF90AF909F908F907F90F3
:1025B0006F905F904F903F902F901F900F900FBEA5
:1025C0000F900895FC010FB6F8940F9280914E027F
:1025D00090914F02DB012D913C912F3FBFEF3B07C4
:1025E00001F1A0915002B08141815281BA1719F0D6
:1025F00084179507C0F4DC01A41BB50BA217B30721
:1026000090F4481B590B240F351FDB012D933C938D
:1026100080915002808380914E0290914F0292836C
:10262000818380E001C081E00F900FBE08950FB656
:10263000F8940F9280914E0290914F020F900FBE2E
:1026400008958091F5038F5F8093F50308950E94AC
:1026500014111895CF93DF93FC01A085B185828179
:10266000938124813581EC013D832C83C481D58104
:102670009B838A8311968D919C911297E817F90795
:1026800021F41296DC93CE931197118610868C91CB
:1026900081508C93DF91CF910895CF93DF939C016C
:1026A000FB01DC011196CD91DC911297D383C2839B
:1026B0008C819D81958384838C819D81DC0113961F
:1026C0007C936E9312977D836C8331872087F90109
:1026D00080818F5F8083DF91CF9108950F931F9347
:1026E000CF93DF93DC011596ED91FC911697C6818F
:1026F000D7818E01045F1F4FC8010E942A13809169
:10270000F503811114C00A501109C8010E942A134F
:102710008E8990912903981710F480932903B9E0CA
:102720008B9FC0011124B8018B5F9C4F03C0B8017F
:102730008CEF92E00E944D13E0912B03F0912C035B
:102740009E898689891720F481E08093070201C061
:1027500080E0DF91CF911F910F910895FF920F9329
:102760001F93CF93DF93EC010FB6F8940F928C0177
:102770000F5E1F4FFF24F3948E8D18166CF4898919
:10278000882351F0C8010E946E138111F092070254
:102790008E8D81508E8FF0CF8FEF8E8F0F900FBE6A
:1027A0000FB6F8940F928E01085F1F4FFF24F39429
:1027B0008D8D18166CF48885882351F0C8010E940D
:1027C0006E138111F09207028D8D81508D8FF0CFA5
:1027D0008FEF8D8F0F900FBEDF91CF911F910F91D3
:1027E000FF9008950F920FB6F8940F921F92112444
:1027F0002F923F924F925F926F927F928F929F9211
:10280000AF92BF92CF92DF92EF92FF920F931F93FE
:102810002F933F934F935F936F937F938F939F93E8
:10282000AF93BF93CF93DF93EF93FF93A0912B03CD
:10283000B0912C030DB60D920EB60D928091F5035A
:10284000882321F081E08093070267C0109207027D
:10285000A0912B03B0912C03E0912B03F0912C035A
:102860002D913C918789908D82179307D8F08091A4
:102870002B0390912C0380912B0390912C03259A8C
:102880002D9A2FEF87EA91E6215080409040E1F7A2
:1028900000C000001D9AF5CF8091290381508093DC
:1028A000290301C099E0E09129039E9FF0011124C2
:1028B000EB5FFC4F8081882379F38091290390E0BE
:1028C00049E0489F9001499F300D1124F901EB5FC9
:1028D000FC4FA181B28112960D90BC91A02DB283C4
:1028E000A183285F3C4FA217B30731F412962D91B4
:1028F0003C9113973283218329E0289FF001299F7F
:10290000F00D1124EB5FFC4F0180F281E02D8681F8
:10291000978190932C0380932B03A0912B03B0916C
:102920002C03CD91CDBFDD91DEBFFF91EF91DF9103
:10293000CF91BF91AF919F918F917F916F915F9157
:102940004F913F912F911F910F91FF90EF90DF904A
:10295000CF90BF90AF909F908F907F906F905F903F
:102960004F903F902F901F900F900FBE0F900895A3
:102970009F92AF92BF92CF92DF92EF92FF920F930E
:102980001F93CF93DF930FB6F8940F928091F503C6
:1029900081508093F5038091F503882311F080E046
:1029A00005C180912D038823D1F399E0F92EEE24FF
:1029B000E3948091FC02882351F1E0910103F091AE
:1029C0000203C681D781CE010C960E942A138E0184
:1029D0000E5F1F4FC8010E942A138E899091290310
:1029E000981710F480932903F89EC0011124B801B0
:1029F0008B5F9C4F0E944D13E0912B03F0912C03B1
:102A00009E8986899817A8F2E0920702D2CF80911A
:102A10000602811109C080910702813009F0BFCF01
:102A20000E94F21381E0C2C009E099249394EE243D
:102A3000EA94FE2C80910602882369F38091F503C5
:102A40008111A1C080914E0290914F020196909306
:102A50004F0280934E02C0904E02D0904F02C1149C
:102A6000D10489F58091E8029091E9022091E60273
:102A70003091E7023093E9022093E8029093E70255
:102A80008093E602809150028F5F80935002E09124
:102A9000E802F091E9028081811105C0F092F4030F
:102AA000E092F30310C0E091E802F091E9020580A2
:102AB000F681E02D0680F781E02D8281938190934D
:102AC000F4038093F3038091F3039091F40310E0F7
:102AD000C816D90608F448C0E091E802F091E9026E
:102AE0008081811105C0F092F403E092F3033CC0B1
:102AF000E091E802F091E9020580F681E02DC681BF
:102B0000D7818A819B81C816D90628F49093F40353
:102B10008093F30329C05E0182E0A80EB11CC501B9
:102B20000E942A138C899D89892B21F0CE010C9655
:102B30000E942A138E8990912903981710F480938C
:102B40002903089FC0011124B5018B5F9C4F0E948F
:102B50004D13E0912B03F0912C039E8986899817E1
:102B600008F4BACF11E0B8CFE0912B03F0912C0319
:102B7000E6890E9FF0011124EB5FFC4F80818230CB
:102B800040F011E006C0809106028F5F809306023C
:102B900010E080910702811101C01111909207028B
:102BA0008091060281508093060244CF0F900FBEA1
:102BB000DF91CF911F910F91FF90EF90DF90CF9019
:102BC000BF90AF909F900895CF93DF93EC01892B36
:102BD00019F40E94F21316C00E94211380914E0234
:102BE00090914F02C80FD91F80912B0390912C0315
:102BF00002960E942A13CE010E9412170E94B81456
:102C0000882339F3DF91CF9108950F931F93CF93CA
:102C1000DF938C01FB01808191818F3F2FEF920721
:102C200021F4E801AF81B8850EC0D8011396129641
:102C30002D913C911397E90148815981841795079B
:102C400010F0D901F4CF12968D919C911397938334
:102C50008283EC01FD83EC83B583A4831396FC93FC
:102C6000EE93129711870087F80180818F5F808330
:102C7000DF91CF911F910F910895CF93DF93EB01D7
:102C800060912B0370912C03645F7F4F0E940516A7
:102C900080912B0390912C0302960E942A13CF3F20
:102CA0008FEFD80761F460912B0370912C036E5F56
:102CB0007F4F8AEE92E0DF91CF910C944D1380917B
:102CC0004E0290914F028C0F9D1FDF91CF910C947B
:102CD0001217FC010396928381832FEF3FEF348319
:102CE0002383968385839087878310820895CF936B
:102CF000DF93009751F0EC010E942113CE010E9456
:102D00003521DF91CF910C94B814DF91CF910895C4
:102D1000CF93DF93EC010E942113CE010E949D20EE
:102D2000EC010E94B814209711F40E94370BCE01D9
:102D3000DF91CF910895FC0173836283918780872F
:102D40004617570778F0421B530B84859585481723
:102D50005907C8F4BF016E5F7F4F8091EF039091D8
:102D6000F0030DC04217530718F46217730758F4A5
:102D7000BF016E5F7F4F8091F1039091F2030E943B
:102D8000051680E0089581E00895EF92FF920F9379
:102D90001F93CF93DF93E091F103F091F2038081D1
:102DA000882369F10580F681E02D00811181C681BB
:102DB000D7817E0182E0E80EF11CC7010E942A1330
:102DC000E989FA89CE0109958E85813021F78C85B4
:102DD0009D85800F911F0817190760F49B838A83D4
:102DE000D987C887B7018091F1039091F2030E94BF
:102DF0000516D1CFB801CE010E94141CCCCF809112
:102E0000EF039091F0039093F2038093F103F0931A
:102E1000F003E093EF03DF91CF911F910F91FF90AB
:102E2000EF900895CF93DF93E0912B03F0912C0363
:102E30009383828320914E0230914F028217930731
:102E400070F460912B0370912C038091E6029091B5
:102E5000E7026E5F7F4FDF91CF910C940516EC0176
:102E600060912B0370912C038091E8029091E9020C
:102E70006E5F7F4F0E9405168091F3039091F403DB
:102E8000C817D90720F4D093F403C093F303DF915C
:102E9000CF910895CF93DF93CDB7DEB72A970FB6C2
:102EA000F894DEBF0FBECDBF94E0C92ED12CE091C7
:102EB000F103F091F2031081112331F00580F681C6
:102EC000E02DE080F18002C0E12CF12C0E94211362
:102ED0000E9417135C018091090290910A02A816C2
:102EE000B90620F40E94C51681E001C080E0B092CE
:102EF0000A02A0920902811189C0112389F1AE143E
:102F0000BF04B0F10E94B814E091F103F091F20314
:102F10000580F681E02D06811781C80102960E9486
:102F20002A13D8011E968C911E97813089F41C9625
:102F30006D917C911D976E0D7F1D9701A501C801B4
:102F40000E949B16813021F4B701C8010E94141C15
:102F5000D8015196ED91FC915297C801099568C02E
:102F6000E091EF03F091F003992493948081811113
:102F7000912C0091F6031091F7030FB6F8940F927D
:102F8000F801858D8F3F09F4158ED8015E968C91DE
:102F90005E978F3F11F45E961C920F900FBEF80162
:102FA000828D811129C060912B0370912C03645F85
:102FB0007F4FC80141960E944D1380912B03909141
:102FC0002C0302960E942A13F1E09F120BC060911D
:102FD0002B0370912C036E5F7F4F8AEE92E00E946C
:102FE0004D130AC080914E0290914F028E0D9F1D8D
:102FF0008A199B090E941217C8010E94AE130E94F1
:10300000B814811115C00E94F21312C00E94B814A6
:103010000FC0AA80BB80F801648575856A0D7B1D91
:103020009501A701C8010E949B16813009F48BC04D
:1030300089E0B82E0091F6031091F7031A861986DD
:1030400080E04801B1E18B0E911C0FB6F8940F920D
:10305000F801928D992309F49DC0448D4423C9F051
:1030600050E086819781840F951F97838683228104
:1030700033818217930720F0808191819783868323
:10308000D80116966D917C911797CE0101960E94FA
:10309000C321F801828D8150828F80819181892B9B
:1030A000B1F480912B0390912C03892B39F0E0919E
:1030B0002B03F0912C0382A18F5F82A380912B03BD
:1030C00090912C03D80113969C938E931297F8013C
:1030D0008085882341F0C80108960E946E138130D4
:1030E00011F40E94F2130F900FBEA980A7FCA2CF8B
:1030F0000C811D81D8011A968D919C911B97892B6B
:1031000021F0C80102960E942A130E9417137C0125
:103110008091090290910A02E816F90610F40E94C3
:10312000C516F0920A02E09209028A2DAA0C990BA8
:10313000AA0BBB0B8A30910508F07CCFFC01EC5C3C
:10314000FF4F0C949720D8015196ED91FC91529726
:10315000C8010995F8018685813009F069CF648539
:1031600075856A0D7B1DC8010E94141C61CF6A81A0
:103170007B81D8011D967C936E931C976E0D7F1DED
:103180009701A701C8010E949B1652CFC8010E9457
:1031900077164ECF29853A85232B19F40F900FBE51
:1031A00086CE811109C0809150028E8380914E029B
:1031B00090914F0298878F830F900FBE0E9421132A
:1031C0000FB6F8940F92D8015D968C915D978F3F62
:1031D00011F45D961C92F801868D8F3F09F4168ECE
:1031E0000F900FBEBE01675F7F4FCE0106960E9413
:1031F000E212811182C00FB6F8940F92D8015A964C
:103200008C915A970F900FBE811171C0F801808187
:103210009181892B09F05AC00FB6F8940F9212963B
:10322000ED90FC901397E114F10409F44DC0F701FF
:103230008689E0912B03F0912C039689891708F079
:1032400043C0D7011C962D913C911D9737FD0CC0B2
:10325000E0912B03F0912C0396899601291B3109EB
:103260001D963C932E931C97B89EC00111248B5F32
:103270009C4FF7012285338528173907F1F4370170
:10328000F2E06F0E711CC3010E942A13E0912B0320
:10329000F0912C038689D70156968C93909129033F
:1032A000981710F480932903B89EC0011124B3012C
:1032B0008B5F9C4F0E944D1307C0E0912B03F09150
:1032C0002C038689F701868B0F900FBE69857A855E
:1032D000C4010E943D16C8010E94AE130E94B8149A
:1032E000882311F081E0B1CE0E94F213FBCFC80118
:1032F0000E94AE130E94B814F5CFC8010E94AE130D
:103300000E94B814D4CDEEE2F3E01382128288EE6C
:1033100093E0A0E0B0E084839583A683B78326E2A0
:1033200031E03183208325EC30E03587248724EC9D
:1033300030E03787268720EC30E0318B208B21EC82
:1033400030E0338B228B22EC30E0358B248B26EC63
:1033500030E0378B268B118E128E138E148EEBEC91
:10336000F3E01382128284839583A683B78388E374
:1033700091E09183808308959F92AF92BF92CF9204
:10338000DF92EF92FF920F931F93CF93DF93B82EAC
:10339000E92E962EA72EEA01F22ECA010E94881667
:1033A0006C01892B09F440C189E290E00E948816E3
:1033B0008C010097D9F0DC015896DC92CE92579799
:1033C000AE0165EA70E0C6010E94CC212197D801C8
:1033D0005796ED91FC915897EC0FFD1FB801675E71
:1033E0007F4FA92DBA2DCD01089607C0C6010E94B6
:1033F00077161AC1A817B90749F09D014D91EB0145
:103400004993BE01E90128812111F4CFD80190969A
:103410001C928F2DB3E0BF1508F483E0E8018E8B7A
:1034200089A31AA21B861A861D8A1C8A19870887F7
:1034300024E030E0A901481B51095D874C871B8BB4
:103440000A8B1BA21CA21DA21EA218A61FA291E1FC
:103450009083DF01119782E28C93119723E32C93E1
:103460001197BC921197EC9211971C92119720E83A
:103470002C9311971C92119722E02C93119723E023
:103480002C93119724E02C93119725E02C931197FE
:1034900026E02C93119727E02C93119728E02C938A
:1034A000119729E02C93119720E12C9311979C936D
:1034B000119792E19C93119793E19C93119794E15A
:1034C0009C93119795E19C93119796E19C9311978A
:1034D00097E19C93119798E19C93119799E19C93A4
:1034E000119790E29C93119791E29C9311978C9382
:1034F000119783E28C9311971C9211971C9211974C
:1035000086E28C93119787E28C93119788E28C93D3
:10351000119789E28C93119780E38C93119781E343
:103520008C93B697F983E8830FB6F8940F92809145
:103530002D038F5F80932D0380912B0390912C039B
:10354000892BD1F510932C0300932B0380912D032D
:10355000813009F040C085E093E00E9469168EE05A
:1035600093E00E94691687E193E00E94691680E269
:1035700093E00E94691680EE93E00E94691687ED41
:1035800093E00E9469168CEF92E00E94691683EF27
:1035900092E00E9469168AEE92E00E94691680EE1F
:1035A00093E09093E9028093E80287ED93E0909393
:1035B000E7028093E6020FC080912A0381110BC0BD
:1035C000E0912B03F0912C038689F81620F01093DC
:1035D0002C0300932B038091E9038F5F8093E90311
:1035E000F801868990912903981710F48093290394
:1035F000B8016E5F7F4FF9E08F9FC00111248B5F90
:103600009C4F0E944D130F900FBE80912A03882378
:1036100049F0E0912B03F0912C0386898F1510F46B
:103620000E94F21381E001C08FEFDF91CF911F91D3
:103630000F91FF90EF90DF90CF90BF90AF909F9051
:103640000895CF92DF92EF92FF920F931F93CF9343
:10365000DF9300D000D01F92CDB7DEB78C017B0185
:103660001D821C8280E0680198E0C90ED11C0FB653
:10367000F8940F92F801228D938D291708F071C0EC
:10368000448D41113FC080819181892B09F052C046
:10369000F801E280F380E114F10411F480E02EC01F
:1036A000F70182A1815082A3268991A12917B1F344
:1036B0008111F4CF6701F2E0CF0ED11CC6010E9448
:1036C0002A13F70181A1868B482F50E024E030E0D7
:1036D000241B350B3587248790912903981710F404
:1036E0008093290329E0249FC001259F900D112478
:1036F000B6018B5F9C4F0E944D1381E0F80113824D
:10370000128219C050E0B701F801848195810E94AE
:10371000C321F801248D84819581820F911D9583A9
:103720008483228133818217930720F080819181E5
:103730009583848380E0F801928D9F5F928F9189B9
:10374000992349F0C80141960E946E13813029F4F3
:103750000E94F21302C08111FBCF0F900FBE81E0D7
:1037600055C02C813D81232B19F40F900FBE4DC005
:10377000811109C080915002898380914E029091FD
:103780004F029B838A830F900FBE0E9421130FB6B6
:10379000F8940F92F801858D8F3F09F4158EF8018A
:1037A000868D8F3F09F4168E0F900FBEBE016C5FA1
:1037B0007F4FCE0101960E94E212811121C00FB607
:1037C000F8940F92F801928D838D0F900FBE98138D
:1037D00011C06C817D81C6010E943D16C8010E9406
:1037E000AE130E94B814882311F081E040CF0E94EC
:1037F000F213FBCFC8010E94AE130E94B814F5CF9C
:10380000C8010E94AE130E94B81480E00F900F9080
:103810000F900F900F90DF91CF911F910F91FF901C
:10382000EF90DF90CF900895CF93DF9300D000D03A
:103830001F92CDB7DEB79C018091F6039091F703FC
:10384000009761F019827B836A833D832C832091EA
:103850002A03222329F02091F50302C080E005C04D
:10386000BE016F5F7F4F0E94211B0F900F900F9042
:103870000F900F90DF91CF910895789484B5826076
:1038800084BD84B5816084BD85B5826085BD85B504
:10389000816085BD80916E00816080936E00109282
:1038A00081008091810082608093810080918100FD
:1038B000816080938100809180008160809380008E
:1038C0008091B10084608093B1008091B0008160EC
:1038D0008093B00080917A00846080937A00809118
:1038E0007A00826080937A0080917A008160809370
:1038F0007A0080917A00806880937A001092C100EB
:103900000E94AA0520E040E850E06DEE71E08CE6F0
:1039100097E00E94BC19813009F0AEC00FB6F89450
:103920000F928091F6039091F703892B09F04BC019
:1039300087E094E00E9469168EEF93E00E9469167A
:1039400087E094E09093F2038093F1038EEF93E08D
:103950009093F0038093EF0382E590E00E94881635
:10396000EC01009761F14F96998388838AE08B8FF1
:1039700085E08C8F0FB6F8940F92288139819B8D4A
:103980004C8D949FC0011124B901680F791F7B836E
:103990006A831A8E3D832C83841B9109820F931FA7
:1039A0009F838E838FEF8D8F8E8FCE0108960E941E
:1039B0006916CE0141960E9469160F900FBED093F2
:1039C000F703C093F6030F900FBE8091F60390911A
:1039D000F703892B09F450C023E045E550E062EF7E
:1039E00071E08AE497E10E94BC19813009F044C07B
:1039F000F8942FEF3FEF3093F4032093F303809379
:103A00002A0310924F0210924E02A89520EC88E1F2
:103A100090E00FB6F894A895809360000FBE2093B5
:103A20006000A0912B03B0912C03CD91CDBFDD910F
:103A3000DEBFFF91EF91DF91CF91BF91AF919F9149
:103A40008F917F916F915F914F913F912F911F9136
:103A50000F91FF90EF90DF90CF90BF90AF909F902D
:103A60008F907F906F905F904F903F902F901F901E
:103A70000F900FBE0F9008950E94370B0E94AA0569
:103A80000E943D0EFDCFFC0188279927E8942191E3
:103A90002032E9F3293010F02E30C8F32B3241F0F8
:103AA0002D3239F4689404C00E94611D820F911D6B
:103AB000219120532A30C0F31EF4909581959F4F99
:103AC00008957AE0979F902D879F802D910D112466
:103AD00008950E94AB1D08F481E00895E89409C0A0
:103AE00097FB3EF490958095709561957F4F8F4F31
:103AF0009F4F9923A9F0F92F96E9BB279395F69547
:103B0000879577956795B795F111F8CFFAF4BB0FC4
:103B100011F460FF1BC06F5F7F4F8F4F9F4F16C028
:103B2000882311F096E911C0772321F09EE8872FB2
:103B3000762F05C0662371F096E8862F70E060E06E
:103B40002AF09A95660F771F881FDAF7880F9695E7
:103B5000879597F90895990F0008550FAA0BE0E88B
:103B6000FEEF16161706E807F907C0F0121613063F
:103B7000E407F50798F0621B730B840B950B39F47F
:103B80000A2661F0232B242B252B21F408950A26E5
:103B900009F4A140A6958FEF811D811D08950E9413
:103BA000E21D0C94531E0E94451E38F00E944C1ECC
:103BB00020F0952311F00C943C1E0C94421E11240D
:103BC0000C94871E0E94641E70F3959FC1F3950F9D
:103BD00050E0551F629FF001729FBB27F00DB11D91
:103BE000639FAA27F00DB11DAA1F649F6627B00D21
:103BF000A11D661F829F2227B00DA11D621F739F0A
:103C0000B00DA11D621F839FA00D611D221F749F17
:103C10003327A00D611D231F849F600D211D822F5E
:103C2000762F6A2F11249F5750409AF0F1F0882385
:103C30004AF0EE0FFF1FBB1F661F771F881F9150B2
:103C40005040A9F79E3F510580F00C943C1E0C9407
:103C5000871E5F3FE4F3983ED4F38695779567958A
:103C6000B795F795E7959F5FC1F7FE2B880F911DDC
:103C70009695879597F9089597F99F6780E870E082
:103C800060E008959FEF80EC089500240A941616D2
:103C9000170618060906089500240A94121613063A
:103CA000140605060895092E0394000C11F48823C8
:103CB00052F0BB0F40F4BF2B11F460FF04C06F5FE4
:103CC0007F4F8F4F9F4F089557FD9058440F551FBA
:103CD00059F05F3F71F04795880F97FB991F61F08E
:103CE0009F3F79F087950895121613061406551F05
:103CF000F2CF4695F1DF08C0161617061806991F71
:103D0000F1CF86957105610508940895E894BB2765
:103D100066277727CB0197F90895A1E21A2EAA1BEF
:103D2000BB1BFD010DC0AA1FBB1FEE1FFF1FA2176B
:103D3000B307E407F50720F0A21BB30BE40BF50B68
:103D4000661F771F881F991F1A9469F760957095F1
:103D5000809590959B01AC01BD01CF01089550580D
:103D6000BB27AA270E94C71E0C94531E0E94451E03
:103D700038F00E944C1E20F039F49F3F19F426F4CD
:103D80000C94421E0EF4E095E7FB0C943C1EE92FC8
:103D90000E94641E58F3BA176207730784079507D9
:103DA00020F079F4A6F50C94861E0EF4E0950B2E07
:103DB000BA2FA02D0B01B90190010C01CA01A0017D
:103DC0001124FF27591B99F0593F50F4503E68F1D8
:103DD0001A16F040A22F232F342F4427585FF3CF19
:103DE000469537952795A795F0405395C9F77EF4EA
:103DF0001F16BA0B620B730B840BBAF09150A1F033
:103E0000FF0FBB1F661F771F881FC2F70EC0BA0FB8
:103E1000621F731F841F48F4879577956795B79540
:103E2000F7959E3F08F0B0CF9395880F08F099273B
:103E3000EE0F979587950895DF93DD27B92FBF770C
:103E400040E85FE31616170648075B0718F4D92FFA
:103E50000E941F209F938F937F936F930E946D20EA
:103E6000ECE7F0E00E94F31F0E94531E2F913F9158
:103E70004F915F910E94E21DDD2351F09058A2EA1C
:103E80002AED3FE049EC5FE3D0785D270E94C71E32
:103E9000DF910C94531E0E945F1F0C94531E0E94CE
:103EA0004C1E58F00E94451E40F029F45F3F29F057
:103EB0000C943C1E51110C94871E0C94421E0E94BF
:103EC000641E68F39923B1F3552391F3951B550BA9
:103ED000BB27AA2762177307840738F09F5F5F4FDD
:103EE000220F331F441FAA1FA9F335D00E2E3AF01C
:103EF000E0E832D091505040E695001CCAF72BD034
:103F0000FE2F29D0660F771F881FBB1F2617370784
:103F10004807AB07B0E809F0BB0B802DBF01FF27B6
:103F200093585F4F3AF09E3F510578F00C943C1E39
:103F30000C94871E5F3FE4F3983ED4F38695779503
:103F40006795B795F7959F5FC9F7880F911D96956F
:103F5000879597F90895E1E0660F771F881FBB1FCB
:103F6000621773078407BA0720F0621B730B840B78
:103F7000BA0BEE1F88F7E09508950E94C41F68945D
:103F8000B1110C94871E08950E946C1E88F09F57F3
:103F900098F0B92F9927B751B0F0E1F0660F771F6D
:103FA000881F991F1AF0BA95C9F714C0B13091F063
:103FB0000E94861EB1E008950C94861E672F782F0C
:103FC0008827B85F39F0B93FCCF386957795679528
:103FD000B395D9F73EF490958095709561957F4F94
:103FE0008F4F9F4F0895DF93CF931F930F93FF92AF
:103FF000EF92DF927B018C01689406C0DA2EEF010C
:104000000E94E21DFE01E894A5912591359145910C
:104010005591A6F3EF010E94C71EFE019701A8016A
:10402000DA9469F7DF90EF90FF900F911F91CF9195
:10403000DF9108950E94AB1D08F48FEF08959B0156
:10404000AC0160E070E080E89FE30C944B1F19F432
:1040500016F40C94421E0C9476200E946C1EB8F349
:104060009923C9F3B6F39F57550B87FF0E9484200D
:104070000024A0E640EA900180585695979528F4D0
:10408000805C660F771F881F20F0261737074807C8
:1040900030F4621B730B840B202931294A2BA6951F
:1040A00017940794202531254A2758F7660F771F64
:1040B000881F20F026173707480730F4620B730B70
:1040C000840B200D311D411DA09581F7B901842F6E
:1040D0009158880F9695879508959B01AC010C9493
:1040E000CF1D0E94AB1D880B990B08959F3F31F0A7
:1040F000915020F4879577956795B795880F911D16
:104100009695879597F9089591505040660F771FBF
:10411000881FD2F70895991B79E004C0991F96175C
:1041200008F0961B881F7A95C9F780950895EE0FC1
:10413000FF1F0590F491E02D09940F931F93CF93E7
:10414000DF938230910510F482E090E0E091120458
:10415000F091130420E030E0A0E0B0E0309719F1D6
:10416000408151810281138148175907C8F0841793
:10417000950769F4109731F012960C9312971396E5
:104180001C9327C0009312041093130422C021151E
:10419000310519F04217530718F49A01BD01EF01D8
:1041A000DF01F801DBCF21153105F9F0281B390BB0
:1041B0002430310580F48A819B816115710521F0DD
:1041C000FB019383828304C09093130480931204B1
:1041D000FE01329644C0FE01E20FF31F81939193DA
:1041E00022503109398328833AC02091100430913C
:1041F0001104232B41F420910201309103013093EB
:104200001104209310042091000130910101211527
:10421000310541F42DB73EB740910401509105019D
:10422000241B350BE0911004F0911104E217F30701
:10423000A0F42E1B3F0B2817390778F0AC014E5F16
:104240005F4F2417350748F04E0F5F1F509311043E
:10425000409310048193919302C0E0E0F0E0CF011D
:10426000DF91CF911F910F910895CF93DF93009726
:1042700009F481C0FC01329713821282A0911204CA
:10428000B0911304109781F420813181820F931F24
:1042900020911004309111042817390751F5F0933B
:1042A0001104E093100467C0ED0120E030E0CE1768
:1042B000DF0740F44A815B819E0141155105F1F011
:1042C000EA01F5CFD383C28340815181840F951FCA
:1042D000C817D90759F488819981840F951F0296D0
:1042E000918380838A819B81938382832115310509
:1042F00029F4F0931304E09312043DC0E901FB8319
:10430000EA8349915991C40FD51FEC17FD0761F459
:1043100080819181840F951F0296E901998388839A
:10432000828193819B838A83E0E0F0E012968D91F5
:104330009C911397009719F0FD01DC01F7CF8D9147
:104340009C9111979D012E5F3F4F820F931F2091EB
:104350001004309111042817390769F4309729F4B3
:10436000109213041092120402C013821282B093AE
:104370001104A0931004DF91CF91089581E090E0A3
:10438000F8940C94E221FB01DC0102C001900D9233
:1043900041505040D8F70895DC0101C06D93415061
:1043A0005040E0F70895FB01DC014150504048F0D7
:1043B00001900D920020C9F701C01D92415050405C
:0843C000E0F70895F894FFCF27
:1043C8000000140480000000000000000000A406A3
:1043D800470E470E00000000A306A506A406F00637
:1043E800A70600000000CE0D3B0D650D1B0E960DB7
:1043F800740D880D0000000070064306A00617061D
:104408003B062706180648414C4C4F4F4F4F4F006C
:10441800436F756C64206E6F742066696E642061EA
:104428002076616C6964204C334734323030442044
:1044380073656E736F722C20636865636B20776990
:1044480072696E672100436F756C64206E6F74200B
:1044580066696E6420612076616C69642041445805
:104468004C3334352073656E736F722C2063686526
:10447800636B20776972696E67210044657369729E
:10448800656420616E676C653A20006E616E006934
:104498006E66006F7666000D0A00494D550053653B
:1044A8007269616C004144584C3334350049444CBE
:0A44B8004500546D72205376630036
:00000001FF
