:100000000C946C000C9494000C9494000C94940048
:100010000C9494000C9494000C9462140C9494002E
:100020000C9494000C9494000C9494000C948A0BFF
:100030000C9494000C9494000C9494000C949400F0
:100040000C94400B0C9494000C94CC080C94A608CF
:100050000C9494000C9494000C9494000C949400D0
:100060000C94FA0E0C949400461B461B461B571B1F
:10007000F41B031C461B461B571BF41B000000000F
:10008000240027002A0000000000250028002B0083
:10009000040404040404040402020202020203032E
:1000A0000303030301020408102040800102040836
:1000B00010200102040810200000000800020100C6
:1000C0000003040700000000000000000000000022
:1000D000230026002900E11C11241FBECFEFD8E029
:1000E000DEBFCDBF12E0A0E0B1E0E4E6F5E402C07F
:1000F00005900D92AC3AB107D9F724E0ACEAB2E032
:1001000001C01D92AB3CB207E1F710E0CCE6D0E0B5
:1001100004C02197FE010E946521CB36D107C9F7A3
:100120000E94F5160C94B0220C940000CF93DF933C
:10013000CDB7DEB7CF57D1090FB6F894DEBF0FBEEB
:10014000CDBF8091E3028C30A8F491E0980F90939A
:10015000E302EA968FAFEA9790E0FC01EE0FFF1FF3
:100160008E0F9F1FFC01E156FC4F88EB9BE09283B2
:10017000818304C08FEFEA968FAFEA97EA968FAD3E
:10018000EA978C3008F055C061E089E00E9456097A
:10019000EA968FADEA97E82FF0E09F01220F331F18
:1001A000E20FF31FE156FC4F9081907C99609083A1
:1001B000EB961FAEEB97EC961FAEEC976CE00E94AF
:1001C00059219CE0899FB001112440E050E09B013F
:1001D000240F351FF901EE0FFF1F2E0F3F1FF901EE
:1001E000E156FC4F908196FD16C04F5F5F4F4C303B
:1001F000510569F781110FC01092800082E0809351
:1002000081001092850010928400B19A80916F0055
:10021000826080936F00EA96EFADEA97F0E0CF013D
:10022000880F991FE80FF91FE156FC4F8081806409
:10023000808368EE73E0CE0187589F4F0E94D210F2
:1002400084E291E0AC969FAF8EAFAC9789E390E3E8
:10025000A0E0B0E0E1968CAF9DAFAEAFBFAFE1974D
:10026000E3961FAE1EAEE39781E0E8968FAFE89766
:1002700011E009E6198E1A8E1B8E1C8E1D8E1E8EA5
:100280001F8E18A219A21AA21BA21CA219AA1DA293
:100290001EA21FA218A619A61AA61BA61CA61DA65A
:1002A0001EA61FA618AA1AAA1BAA1CAA1DAA0E944B
:1002B0001E121093320300935403109233031092D2
:1002C00055036FE088EA94E00E94440A0E945111AD
:1002D000109332030093540310923303109255038A
:1002E00061E070E089E690E00E94081188EA94E0FD
:1002F0000E94030AF82E0E94511183EDF812E7C004
:100300004FE060E2CE0101960E94E20C40E061E223
:10031000CE0101960E94E20C48E062E2CE01019615
:100320000E94E20C40E263E2CE0101960E94E20CE0
:1003300089E29CE5AFE8BDE38EAB9FABA8AFB9AF58
:1003400040E064E2CE0101960E94E20C13E5E996DA
:100350001FAFE997E8968FADE897882319F00E94C0
:100360001E1224C061E0E7968FADE7970E94560900
:1003700061E0E7968FADE7970E94270961E0E49678
:100380008FADE4970E94560961E0E4968FADE49743
:100390000E94270961E0E5968FADE5970E94560916
:1003A00060E0E6968FADE6970E945609E8968FAD1D
:1003B000E897882301F1E9968FADE99791E0909352
:1003C000320380935403109233031092550360E07C
:1003D00088EA94E00E94440A0E945111E9968FAD88
:1003E000E99761E070E090E00E94081188EA94E0EB
:1003F0000E94030A26C060E0E7968FADE7970E944F
:10040000270920E8E5964FADE597E6966FADE697AC
:10041000E4968FADE4970E9428102FEFE5964FAD3C
:10042000E597E6966FADE697E4968FADE4970E9468
:100430002810F82E61E0E7968FADE7970E94270914
:100440008F2D853E09F04CC0E8968FADE897882344
:10045000C9F0E9968FADE99791E0909332038093CC
:10046000540310923303109255036DE288EA94E02E
:100470000E94440A68E088EA94E00E94440A0E94CC
:10048000511137C060E0E7968FADE7970E942709CA
:100490002DE2E5964FADE597E6966FADE697E496CB
:1004A0008FADE4970E94281028E0E5964FADE597C0
:1004B000E6966FADE697E4968FADE4970E9428101C
:1004C00061E0E7968FADE7970E94270912C082E5A9
:1004D00091E00E9410128EE390E00E94C01CCACEF0
:1004E00088E891E00E9410128EE390E00E94C01C08
:1004F0002ECF64E6CE0101960E94FA0C812C912C3D
:100500005401BE016F5F7F4FCE018A5B9F4F0E94F7
:100510004B0C89A9CEA8DFA8E8ACF9AC882389F1F7
:10052000298D3A8D4B8D5C8D69817A818B819C817F
:100530000E94DF1FA70196010E94E51E6D877E873E
:100540008F87988B2D8D3E8D4F8D58A16D817E812B
:100550008F8198850E94DF1FA70196010E94E51EEA
:10056000698B7A8B8B8B9C8B29A13AA14BA15CA1C7
:1005700069857A858B859C850E94DF1FA70196017E
:100580001EC0A701960169817A818B819C810E949E
:10059000E51E6D877E878F87988BA70196016D81F9
:1005A0007E818F8198850E94E51E698B7A8B8B8B6B
:1005B0009C8BA701960169857A858B859C850E9415
:1005C000E51E6D8B7E8B8F8B988F20E030E0A9012C
:1005D0006AA97BA98CA99DA90E94F42018160CF089
:1005E0005DC0CD84DE84EF84F88820E030E0A9018E
:1005F000C701B6010E94F420181624F0F7FAF0940F
:10060000F7F8F094A70196016DA17EA18FA198A59E
:100610000E94F420181624F41D861E861F86188A50
:10062000C988DA88EB88FC8820E030E0A901C7019E
:10063000B6010E94F420181624F0F7FAF094F7F8A7
:10064000F094A701960169A57AA58BA59CA50E94A7
:10065000F420181624F4198A1A8A1B8A1C8ACD8859
:10066000DE88EF88F88C20E030E0A901C701B601F0
:100670000E94F420181624F0F7FAF094F7F8F0949A
:10068000A70196016DA57EA58FA598A90E94F420CB
:10069000181624F41D8A1E8A1F8A188ECD84DE84C3
:1006A000EF84F888BE016A5B7F4FCE0186599F4F69
:1006B0000E94C40A2FB7F8948091CD029091CE0287
:1006C000A091CF02B091D0022FBFBC01CD0168191B
:1006D00079098A099B090E94841E20E030E04AE7DC
:1006E00054E40E944C204B015C01A70196010E943A
:1006F000E51E2091B9023091BA024091BB0250919F
:10070000BC020E94E01F28E431EE4AE75FE30E944A
:10071000E51E6B017C0120E030E040E151E4A2964F
:100720006CAD7DAD8EAD9FADA2970E94E51E2AE017
:1007300037ED43EA5CE30E94E51E9B01AC01C70173
:10074000B6010E94E01F6093B9027093BA028093D1
:10075000BB029093BC022091B5023091B602409149
:10076000B7025091B8020E94DF1F6B017C012091FB
:1007700008013091090140910A0150910B010E943A
:10078000E51EC458DF4F688379838A839B83CC57E7
:10079000D040209104013091050140910601509113
:1007A0000701C701B6010E94E51E2091B1023091F8
:1007B000B2024091B3025091B4020E94E01F2B019B
:1007C0003C016093B1027093B2028093B3029093A4
:1007D000B4022091AD023091AE024091AF0250912F
:1007E000B002C701B6010E94DF1FA50194010E945B
:1007F0004C20209100013091010140910201509163
:1008000003010E94E51E4B015C01A3019201C45843
:10081000DF4F688179818A819B81CC57D0400E94CB
:10082000E01F9B01AC01C501B4010E94E01F4B0118
:100830005C01B7FAB094B7F8B09420E030E0A901B9
:10084000C501B4010E947F1E87FD11C020E030E089
:100850004AE754E4C501B4010E94F420181654F488
:10086000812C912C8AE7A82E84E4B82E03C0812C19
:10087000912C54018091AC02882359F020E030E0A3
:100880004DE854E4C501B4010E94E01F0E94BE205F
:1008900002C068EE73E0CE0187589F4F0E94D210CD
:1008A000C092AD02D092AE02E092AF02F092B002DE
:1008B0008FB7F8948090CD029090CE02A090CF0296
:1008C000B090D0028FBF81E090E00E94C01C19CE92
:1008D0008EE390E00E94C01CC1E08BE094E00E9497
:1008E0002B06181619060CF0C0C08BE094E00E948D
:1008F000C905893409F47CC034F4813401F18434AD
:1009000009F491C0AEC08F3421F0803509F454C091
:10091000A8C08BE094E00E94C9058F9709F0A1C0A0
:100920008091AC028C278093AC02882319F08DEB68
:1009300091E002C08DED91E00E9410128EC00E94E5
:100940000E086B017C018BE094E00E94C9058F9733
:1009500009F087C080E092E00E94FE11C701B60155
:100960000E94FF0720E030E040EA50ECC701B601EA
:100970000E947F1E87FD11C020E030E04CE852E469
:10098000C701B6010E94F42018166CF4C12CD12CBA
:100990009CE8E92E92E4F92E06C0C12CD12C80EA05
:1009A000E82E80ECF82EC092B502D092B602E0920A
:1009B000B702F092B80251C00E940E086B017C0190
:1009C0008BE094E00E94C9058F9709F04AC08CE142
:1009D00092E00E94FE11C701B6010E94FF07C0927B
:1009E0000801D0920901E0920A01F0920B0135C092
:1009F0000E940E086B017C018BE094E00E94C90507
:100A00008F9779F581E392E00E94FE11C701B6014C
:100A10000E94FF07C0920401D0920501E0920601F6
:100A2000F09207011AC00E940E086B017C018BE056
:100A300094E00E94C9058F97A1F486E492E00E9499
:100A4000FE11C701B6010E94FF07C0920001D092BB
:100A50000101E0920201F09203018EE390E00E9416
:100A6000C01C8BE094E00E94B0068BE592E00E94EF
:100A7000FE116091B5027091B6028091B70290911B
:100A8000B80242E00E94DE068BE692E00E94FE1170
:100A90006091B9027091BA028091BB029091BC0240
:100AA0000E94FF0781E090E00E94C01C16CFEBE09F
:100AB000F4E0A089B18982E08C93A485B5851C926D
:100AC000A685B7858FEC8C93108EA489B58986E0B6
:100AD0008C93A289B3898C9180618C93A289B3890C
:100AE0008C9188608C93A289B3898C9180688C9357
:100AF0000288F389E02D80818F7D808322E04CE2A3
:100B000051E06CE772E086E990E00E941A1D21E056
:100B100040E850E060E872E088E694E00C941A1D2A
:100B2000CF92DF92EF92FF920F931F93CF93DF93B9
:100B30006C017A018B01C0E0D0E0CE15DF0581F0B9
:100B4000D8016D918D01D601ED91FC910190F0815C
:100B5000E02DC6010995892B11F02196EECF7E017B
:100B6000C701DF91CF911F910F91FF90EF90DF9020
:100B7000CF900895FC01538D448D252F30E0842FB4
:100B800090E0821B930B541710F0CF9608950197B5
:100B90000895FC01918D828D981761F0828DDF019F
:100BA000A80FB11D5D968C91928D9F5F9F73928F60
:100BB00090E008958FEF9FEF0895FC01918D828D55
:100BC000981731F0828DE80FF11D858D90E0089522
:100BD0008FEF9FEF08952FB7F8948091CD029091F9
:100BE000CE02A091CF02B091D0022FBF8093130408
:100BF00090931404A0931504B09316048BE094E032
:100C00000E94DD0597FF26C02FB7F8948091CD0292
:100C10009091CE02A091CF02B091D0022FBF40910F
:100C20001304509114046091150470911604841BF0
:100C3000950BA60BB70B40910F04509110046091D7
:100C400011047091120484179507A607B707B0F234
:100C50008FEF9FEF0895FC01918D228D892F90E0F9
:100C6000805C9F4F821B91098F73992708958BE0B9
:100C700094E00E942B0621E0892B09F420E0822FCA
:100C80000895FC01848DDF01A80FB11DA35ABF4F49
:100C90002C91848D90E001968F739927848FA6897B
:100CA000B7892C93A089B1898C91837080648C93CF
:100CB000938D848D981306C00288F389E02D80817E
:100CC0008F7D80830895EF92FF920F931F93CF93B0
:100CD000DF93EC0181E0888F9B8D8C8D981305C08C
:100CE000E889F989808185FD26C0F62E0B8D10E0FC
:100CF0000F5F1F4F0F731127E02E8C8DE8120CC071
:100D00000FB607FCFACFE889F989808185FFF5CF16
:100D1000CE010E944106F1CF8B8DFE01E80FF11D3F
:100D2000E35AFF4FF0829FB7F8940B8FEA89FB8953
:100D3000808180620AC09FB7F894EE89FF89608342
:100D4000E889F98980818370806480839FBF81E016
:100D500090E0DF91CF911F910F91FF90EF90089558
:100D6000CF93DF93EC01888D8823C9F0EA89FB8952
:100D7000808185FD05C0A889B9898C9186FD0FC049
:100D80000FB607FCF5CF808185FFF2CFA889B9891E
:100D90008C9185FFEDCFCE010E944106E7CFDF9118
:100DA000CF91089580E090E0892B29F00E943706CA
:100DB00081110C94000008950E948C222F923F9282
:100DC0004F925F926F927F928F929F92AF92BF925B
:100DD000CF92DF92EF92FF920F931F93CF93DF9307
:100DE000CDB7DEB7A4970FB6F894DEBF0FBECDBF68
:100DF0004B015C01F42E9B01AC010E943F21882332
:100E000019F087E892E027C024013501E89477F8CB
:100E10002FEF3FEF4FE75FE7C301B2010E943F2191
:100E200081110DC02FEF3FEF4FE75FE7C301B20124
:100E30000E947F1E18161CF48BE892E00CC02FEF66
:100E40003FEF4FE75FE4C501B4010E94F42018169C
:100E50002CF48FE892E00E94FE11B8C02FEF3FEF14
:100E60004FE75FECC501B4010E947F1E87FDF1CF03
:100E700020E030E0A901C501B4010E947F1E87FF78
:100E80000BC06DE28BE094E00E9463063C01B7FA70
:100E9000B094B7F8B09402C0612C712C10E060E0FF
:100EA00070E080E09FE3F11641F020E030E040E2A6
:100EB00051E40E944C201F5FF6CFA50194010E94CF
:100EC000E01F4B015C010E94C5206AA3C72ED82EEB
:100ED000E92E19A2262F372F482F592F8E010F5D8B
:100EE0001F4F0BA31CA39AE0292E312C412C512C0F
:100EF000CA01B901A20191010E94AE1F605DF80113
:100F000062938F01211531054105510589F7CF0104
:100F10000E94FE118301080F191FFF2009F455C01C
:100F20006AA17C2D8D2D9E2D0E94841E9B01AC01FB
:100F3000C501B4010E94DF1F4B015C016EE28BE032
:100F400094E00E946306080F191F8AE0282E312CB6
:100F5000412C512C20E030E040E251E4C501B401C5
:100F60000E94E51E4B015C010E94C5209B0140E0F0
:100F700050E019A2CBA0DCA0762E3AA3642EE52E79
:100F8000CA01B901A20191010E94AE1F605DF60184
:100F900062936F01211531054105510589F7CF0194
:100FA0000E94FE11080F191F672D7AA1862D9E2D14
:100FB0000E94841E9B01AC01C501B4010E94DF1F89
:100FC0004B015C01FA94F110C5CFC801A4960FB68D
:100FD000F894DEBF0FBECDBFDF91CF911F910F916F
:100FE000FF90EF90DF90CF90BF90AF909F908F9049
:100FF0007F906F905F904F903F902F900895CF9388
:10100000DF9342E00E94DE06EC0183E992E00E9459
:10101000FE118C0F9D1FDF91CF9108958F929F92AB
:10102000AF92BF92CF92DF92EF92FF92CF93DF9376
:101030000E94EB05FC0197FD0EC08D32910579F001
:10104000C0970A9760F0EE32F10549F08BE094E02A
:101050000E94C905EDCF60E070E0CB016CC0812C2F
:10106000912C80E8A82E8FE3B82EC12CD12C7601CC
:10107000C0E0D0E0E130F10569F1ED32F10539F180
:10108000EE32F10531F1CF01C0970A9718F5AAE0C9
:10109000B0E0A70196010E94A31F6F01FF0FEE08A9
:1010A000FF08C60ED71EE81EF91E80E3C81AD10835
:1010B000E108F108CC2371F02DEC3CEC4CEC5DE345
:1010C000C501B4010E94E51E4B015C0103C0D1E0E3
:1010D00001C0C1E08BE094E00E94C9050E94EB05CD
:1010E000FC01C0970A9730F2EE32F10519F4C111F4
:1010F0001FC0C0CFE130F10509F4BCCFDD2341F0C2
:10110000F094E094D094C094C11CD11CE11CF11C5B
:10111000CC2349F0C701B6010E94861EA5019401A7
:101120000E94E51E08C0C701B6010E94861E03C0CA
:10113000D111E6CFEFCFDF91CF91FF90EF90DF900D
:10114000CF90BF90AF909F908F9008951F920F9275
:101150000FB60F9211242F933F934F935F936F938A
:101160007F938F939F93AF93BF93EF93FF938BE006
:1011700094E00E944106FF91EF91BF91AF919F9142
:101180008F917F916F915F914F913F912F910F9030
:101190000FBE0F901F9018951F920F920FB60F92CF
:1011A00011242F938F939F93EF93FF93E0911B0450
:1011B000F0911C048081E0912104F091220482FDD1
:1011C00012C09081809124048F5F8F732091250439
:1011D000821751F0E0912404F0E0E55FFB4F958F1A
:1011E0008093240401C08081FF91EF919F918F91A2
:1011F0002F910F900FBE0F901F901895833081F0A4
:1012000028F4813099F08230A1F008958730A9F058
:101210008830B9F08430D1F4809180008F7D03C094
:10122000809180008F7780938000089584B58F77B8
:1012300002C084B58F7D84BD08958091B0008F7702
:1012400003C08091B0008F7D8093B00008951F93FC
:10125000CF93DF93282F30E0F901E854FF4F8491BA
:10126000F901EC55FF4FD491F901E057FF4FC491BC
:10127000CC23C1F0162F81110E94FE08EC2FF0E064
:10128000EE0FFF1FEA57FF4FA591B4919FB7F89457
:10129000111104C08C91D095D82302C0EC91DE2BA3
:1012A000DC939FBFDF91CF911F910895CF93DF9380
:1012B00090E0FC01EC55FF4F2491FC01E057FF4FFB
:1012C0008491882361F190E0880F991FFC01E45814
:1012D000FF4FC591D491FC01EA57FF4FA591B491FE
:1012E000611109C09FB7F894888120958223888373
:1012F000EC912E230BC0623061F49FB7F894888183
:10130000322F309583238883EC912E2B2C939FBF13
:1013100006C08FB7F894E8812E2B28838FBFDF910A
:10132000CF9108953FB7F8948091BD029091BE028D
:10133000A091BF02B091C00226B5A89B05C02F3F67
:1013400019F00196A11DB11D3FBFBA2FA92F982FEB
:101350008827820F911DA11DB11DBC01CD0142E066
:10136000660F771F881F991F4A95D1F708958091BE
:101370007D0390E020917E03821B9109089585ED05
:101380008093BC008091BC0084FDFCCF10927C0354
:10139000089540910403262F30E0240F311D21329F
:1013A0003105DCF420917C032430C9F4FC0180E099
:1013B00090E0861758F4309104032191DC01AC5180
:1013C000BD4FA30FB11D2C930196F3CF8091040361
:1013D000680F6093040380E0089581E0089582E03F
:1013E0000895089508950895E0917E0380917D0306
:1013F000E81730F4F0E0E158FC4F808190E0089568
:101400008FEF9FEF089590917E0380917D03981751
:1014100050F4E92FF0E0E158FC4F208130E09F5F6D
:1014200090937E0302C02FEF3FEFC9010895CF9242
:10143000DF92EF92FF920F931F93CF93DF937C0184
:10144000CB018A0120913203222389F0EB016B0149
:10145000C40ED51ECC15DD0569F06991D701ED915B
:10146000FC910190F081E02DC7010995F3CF642F25
:101470000E94C909C801DF91CF911F910F91FF9080
:10148000EF90DF90CF900895CF93DF931F92CDB769
:10149000DEB76983209132032223D1F020915503D6
:1014A000203240F021E030E0FC013383228380E0F1
:1014B00090E015C080913303E82FF0E0EC5CFC4F26
:1014C000998190838F5F809333038093550305C088
:1014D00061E0CE0101960E94C90981E090E00F9081
:1014E000DF91CF910895089580E090E008950895E8
:1014F00008950C9403220F931F93CF93DF938C01D5
:10150000EB0188E2FB0111928A95E9F74BE050E08C
:1015100063EA72E0CE010E94A1221B8681E090E086
:10152000A0E0B0E08C879D87AE87BF87F80143813C
:10153000548165817681488B598B6A8B7B8B8C8B30
:101540009D8BAE8BBF8B1CA21DA21EA21FA28AE088
:1015500098EEACE1B3EC888F998FAA8FBB8F8AE0AD
:1015600098EEACE1B3E48C8F9D8FAE8FBF8F83EA92
:101570009FEAA0E2BDE388A399A3AAA3BBA3DF913E
:10158000CF911F910F9108950F931F93CF93DF93E6
:101590008C01EB0184E2FB0111928A95E9F784E268
:1015A00090E0A0E0B0E088839983AA83BB83F80130
:1015B00083819481A581B6818C839D83AE83BF8313
:1015C00081E090E0A0E0B0E088879987AA87BB8798
:1015D000188A198A1A8A1B8A62E3C8010E94AD110F
:1015E000BC01990F880B990B0E94861E2FE632E1F1
:1015F00043E85BE30E94E51E2AE038EE4CE151E44B
:101600000E94E51E6C8B7D8B8E8B9F8B64E3C801E3
:101610000E94AD11BC01990F880B990B0E94861E88
:101620002FE632E143E85BE30E94E51E2AE038EE54
:101630004CE151E40E94E51E688F798F8A8F9B8F61
:1016400066E3C8010E94AD11BC01990F880B990B8C
:101650000E94861E2FE632E143E85BE30E94E51E0E
:101660002AE038EE4CE151E40E94E51E6C8F7D8F3C
:101670008E8F9F8F81E0DF91CF911F910F91089501
:101680001F920F920FB60F9211242F933F938F93B7
:101690009F93AF93BF938091CD029091CE02A09182
:1016A000CF02B091D0023091280323E0230F2D37D1
:1016B00020F40196A11DB11D05C026E8230F029656
:1016C000A11DB11D209328038093CD029093CE02DB
:1016D000A093CF02B093D0028091BD029091BE0240
:1016E000A091BF02B091C0020196A11DB11D8093CF
:1016F000BD029093BE02A093BF02B093C002BF91FF
:10170000AF919F918F913F912F910F900FBE0F90AE
:101710001F9018951F920F920FB60F9211242F93BE
:101720003F934F935F936F937F938F939F93AF9369
:10173000BF93EF93FF938091270387FF05C010921B
:101740008500109284001BC020912703022E000CFC
:10175000330B8091E30290E02817390784F48091DD
:101760002703082E000C990BFC01EE0FFF1F8E0FB4
:101770009F1FFC01E156FC4F808186FD15C08091C2
:1017800027038F5F8093270320912703022E000CED
:10179000330B8091E30290E028173907C4F480915D
:1017A00027038C3064F113C080912703082E000CAE
:1017B000990BFC01EE0FFF1F8E0F9F1FFC01E156DE
:1017C000FC4F808160E08F730E942709D8CF809101
:1017D000840090918500049680349C4918F480E43C
:1017E0009CE905C0809184009091850004969093B7
:1017F0008900809388008FEF809327033BC020915E
:1018000084003091850080912703082E000C990BED
:10181000FC01EE0FFF1F8E0F9F1FFC01E156FC4FD6
:1018200081819281820F931F909389008093880019
:1018300080912703082E000C990BFC01EE0FFF1F6F
:101840008E0F9F1FFC01E156FC4F808186FF12C066
:1018500080912703082E000C990BFC01EE0FFF1F4F
:101860008E0F9F1FFC01E156FC4F808161E08F735A
:101870000E942709FF91EF91BF91AF919F918F91A6
:101880007F916F915F914F913F912F910F900FBE7C
:101890000F901F9018954F925F926F927F928F9248
:1018A0009F92AF92BF92CF92DF92EF92FF920F93EF
:1018B0001F93CF93DF937C018B0181E080933203F0
:1018C00089E680935403109233031092550368EA1B
:1018D00088EA94E00E94440A0E94511166E070E098
:1018E00089E690E00E94081180917D0390E02091AC
:1018F0007E03821B910986309105ECF388EA94E01F
:101900000E94030A582E88EA94E00E94030A482E97
:1019100088EA94E00E94030A782E88EA94E00E9404
:10192000030A682E88EA94E00E94030A982E88EA47
:1019300094E00E94030A882EB42CA12CB5016529DD
:10194000072E000C880B990B0E94861EF8016083FD
:10195000718382839383D62CC12CB6016729072E0D
:10196000000C880B990B0E94861EF8016483758316
:1019700086839783D82DF0E0CF2FBE016929072EEB
:10198000000C880B990B0E94861EF80160877187F6
:10199000828793878CE0D70101900D928A95E1F7B9
:1019A000C701DF91CF911F910F91FF90EF90DF90D2
:1019B000CF90BF90AF909F908F907F906F905F90EF
:1019C0004F900895CF93C42F81E08093320389E62E
:1019D00080935403109233031092550388EA94E0E5
:1019E0000E94440A6C2F88EA94E00E94440ACF9136
:1019F0000C9451112F923F924F925F926F927F926F
:101A00008F929F92AF92BF92CF92DF92EF92FF920E
:101A10000F931F93CF93DF93CDB7DEB7A4970FB685
:101A2000F894DEBF0FBECDBF1C01062F81E0D101AF
:101A3000D0968C9310E01D8E1E8E1F8E18A2198ECC
:101A40001A8E1B8E1C8E1D8A1E8A1F8A188E198A5A
:101A50001A8A1B8A1C8A1D861E861F86188A812C5C
:101A6000912C5401101709F49CC0B101CE010196CC
:101A70000E944B0CF1014080518062807380A30171
:101A80009201C501B4010E94E01F4B015C01D1012C
:101A90001496CD90DD90ED90FC901797A7019601DC
:101AA0006D857E858F8598890E94E01F6D877E8772
:101AB0008F87988BD10118968D919D910D90BC9137
:101AC000A02D89A39AA3ABA3BCA39C01AD016989F6
:101AD0007A898B899C890E94E01F698B7A8B8B8B1A
:101AE0009C8BA3019201C301B2010E94E51E9B01E0
:101AF000AC016D897E898F89988D0E94E01F6D8B66
:101B00007E8B8F8B988FA7019601C701B6010E942B
:101B1000E51E9B01AC01698D7A8D8B8D9C8D0E9499
:101B2000E01F698F7A8F8B8F9C8F29A13AA14BA1DF
:101B30005CA1CA01B9010E94E51E9B01AC016D8D3B
:101B40007E8D8F8D98A10E94E01F6D8F7E8F8F8F6D
:101B500098A30E9492096B017C0185E0482E512CCC
:101B6000612C712C0E949209DC01CB018C199D091A
:101B7000AE09BF09883E9340A105B10598F3B1E0D5
:101B80004B1A510861087108E8EECE0EE3E0DE1E44
:101B9000E11CF11C411451046104710419F71F5F29
:101BA00061CF612F70E080E090E00E94861E6B01A3
:101BB0007C019B01AC01C501B4010E944C202B01AA
:101BC0003C01D10158966D937D938D939C935B97C7
:101BD000A70196016D857E858F8598890E944C208E
:101BE0006D877E878F87988BF101648F758F868FC5
:101BF000978FA701960169897A898B899C890E94B0
:101C00004C204B015C01D10190966D937D938D9397
:101C10009C939397A70196016D897E898F89988DF2
:101C20000E944C20698B7A8B8B8B9C8BA301920139
:101C3000C301B2010E94E51E9B01AC0169897A894A
:101C40008B899C890E94DF1F0E94FF20F10161AFF8
:101C500072AF83AF94AFA7019601698D7A8D8B8D9A
:101C60009C8D0E944C202B013C012D853E854F858B
:101C70005889CA01B9010E94E51E9B01AC01C3014C
:101C8000B2010E94DF1F0E94FF208101035C1F4FF1
:101C9000D8016D937D938D939C931397A701960123
:101CA0006D8D7E8D8F8D98A10E944C206B017C01E3
:101CB000A5019401C501B4010E94E51E9B01AC0180
:101CC000C701B6010E94DF1F0E94FF206101B1E43D
:101CD000CB0ED11CF6016083718382839383D10183
:101CE000D1968D909D90AD90BC90D49720E030E03F
:101CF000A901C501B4010E94F42018160CF061C0BE
:101D0000C501B4010E94C520F62E6623E9F1F10158
:101D100080A9811104C062E3C1010E94FA0C6F2DF9
:101D200070E080E090E00E94861E4B015C019B0108
:101D3000AC01D101D9966D917D918D919C91DC97EB
:101D40000E94E51EF10164A375A386A397A3A501D4
:101D50009401D8016D917D918D919C910E94E51E19
:101D6000F10160A771A782A793A7A5019401D601ED
:101D70006D917D918D919C910E94E51EF10164A76A
:101D800075A786A797A712C0D10194961D921D92A0
:101D90001D921C929797F10110A611A612A613A6E8
:101DA0009C961D921D921D921C929F976F2D70E024
:101DB00080E090E00E94841EF10161AB72AB83ABC6
:101DC00094ABA4960FB6F894DEBF0FBECDBFDF91E3
:101DD000CF911F910F91FF90EF90DF90CF90BF9028
:101DE000AF909F908F907F906F905F904F903F90BB
:101DF0002F9008951F920F920FB60F9211242F93D8
:101E00003F934F935F936F937F938F939F93AF9382
:101E1000BF93EF93FF938091B900887F803609F4D8
:101E20009CC068F5883209F45BC090F4803109F4F5
:101E300054C038F4882309F4F6C0883009F44DC042
:101E4000F6C0883109F44CC0803209F45DC0EFC09F
:101E5000803409F468C048F4803309F455C08833ED
:101E600009F0E5C080937A03D8C0803509F44FC0EB
:101E7000883509F45DC0883409F0D9C0D6C08839E6
:101E800009F4C7C0A8F4883709F467C038F4883665
:101E900009F463C0803709F460C0C9C0883809F408
:101EA000B8C0803909F45FC0803809F0C0C05BC099
:101EB000803B09F486C038F4803A09F466C0883A59
:101EC00009F47FC0B4C0803C09F4A7C0883C09F481
:101ED000A4C0883B09F48AC0AAC08091770310C0CF
:101EE0009091790380917803981770F5E0917903C8
:101EF00081E08E0F80937903F0E0EA5AFC4F8081F5
:101F00008093BB0085EC86C080937A038EC0E091FD
:101F1000790381E08E0F809379038091BB00F0E01C
:101F2000EA5AFC4F808390917903809178036EC0C8
:101F3000E091790381E08E0F809379038091BB005B
:101F4000F0E0EA5AFC4F808380917B0381116DC0E1
:101F500081E08093760384EA61C083E080937C0310
:101F600010922603CFCF80912603803208F051C013
:101F7000E091260381E08E0F809326038091BB00C1
:101F8000F0E0EA5FFC4F8083BDCF85EC8093BC001E
:101F900010927C0380912603803230F4E091260376
:101FA000F0E0EA5FFC4F10826091260370E0E09160
:101FB0002E03F0912F0386E093E0099510922603FB
:101FC00036C084E080937C031092050310920403D2
:101FD000E0913003F0913103099580910403811160
:101FE00005C081E0809304031092E402E0910503B0
:101FF00081E08E0F80930503F0E0EC51FD4F80816E
:102000008093BB009091050380910403981708F416
:1020100079CF85E88093BC000AC085EC8093BC0032
:1020200010927C0304C010927A030E94BF09FF91B2
:10203000EF91BF91AF919F918F917F916F915F9140
:102040004F913F912F910F900FBE0F901F901895B9
:102050004F925F926F927F928F929F92AF92BF92B8
:10206000CF92DF92EF92FF920F931F93CF93DF9364
:10207000882E742E622E07E010E0912CEE24E3945B
:10208000F12CC62FD0E0CE0188549F4F6C01FE0189
:10209000EC55FF4F5F01C057DF4F990C60E0882D72
:1020A0000E942709B701002E01C0660F0A94EAF7C3
:1020B0006621872D0E94270961E0882D0E9427094B
:1020C000F6018491F5015490FE014490442071F092
:1020D00081110E94FE08E42DF0E0EE0FFF1FE45393
:1020E000FF4FA591B4918C915822A9F40150110988
:1020F000A0F6892DDF91CF911F910F91FF90EF9066
:10210000DF90CF90BF90AF909F908F907F906F9017
:102110005F904F900895892D8160982EE7CF259A82
:102120002D9A2FEF80E792E0215080409040E1F718
:1021300000C000001D9AF5CF80912B03882349F140
:102140000E94811AC091D0030E945519CC23A1F39B
:102150000FB6F8940F92E091D503F091D603C681A3
:10216000D781CE0102960E94651480910A048150A5
:1021700080930A0480912B03815080932B030F904E
:102180000FBE8F89988D0E94B515CE010E94B5159E
:10219000D3CF8091E203823010F00E94A9140E94F4
:1021A000D206CACFFC0190819C3088F5818128E855
:1021B00030E0281B310987FD3395220F331F220F92
:1021C000331F6217730784F0828148E552E0481B91
:1021D000510987FD5395440F551F440F551F9B010F
:1021E000461757070CF49A0122503109220F331F6A
:1021F0004FB7F894892F90E0FC01EE0FFF1F8E0F70
:102200009F1FFC01E156FC4F328321834FBF08958D
:1022100090917C039111FCCF613208F060E291E073
:1022200090937C0390937B032FEF20937A0310927B
:102230007903260F20937803909377039091770387
:10224000880F892B8093770380917603813061F426
:1022500010927603809177038093BB008091BC003D
:1022600083FDF8CF85EC01C085EE8093BC008091A2
:102270007C038130E1F380917903861710F460913B
:102280007903A6E5B3E0EFE7F3E080E0861721F0FD
:102290009D9191938F5FFACF10927E0380937D037F
:1022A000089530915503313208F04BC080917C0382
:1022B0008111FCCF9091540322E020937C0321E014
:1022C00020937B032FEF20937A03109279033093AE
:1022D0007803E4E3F3E0A6E5B3E020E0321721F071
:1022E00041914D932F5FFACF10927703209177039E
:1022F000990F922B9093770390917603913061F42C
:1023000010927603909177039093BB009091BC005C
:1023100093FDF8CF95EC01C095EE9093BC009091A1
:102320007C039230E1F390917A039F3F79F08091A2
:102330007A03803241F080917A03803331F084E077
:1023400005C081E003C082E001C083E01092330346
:10235000109255031092320308950F931F93CF9359
:10236000DF93EC01162F8D85882321F18E8591E076
:1023700090933203809354031092330310925503C9
:1023800088EA94E00E94440A0E9451118E8562E01E
:1023900070E090E00E94081188EA94E00E94030A2D
:1023A000C82F88EA94E00E94030A982F88278C019E
:1023B0000C2B1EC060E08C850E942709212F206C09
:1023C0004A856B8589850E9428102FEF4A856B8589
:1023D00089850E942810082F2FEF4A856B858985F3
:1023E0000E94281010E0182B61E08C850E942709BC
:1023F000C801DF91CF911F910F910895009769F067
:10240000FC0101900020E9F73197AF01481B590BFF
:10241000BC018BE094E00C94900580E090E008957E
:10242000CF93DF930E94FE11EC0183E992E00E94BA
:10243000FE118C0F9D1FDF91CF91089510927E03A6
:1024400010927D03109233031092550310927C0377
:1024500081E080937B031092760361E082E10E9429
:10246000270961E083E10E942709E9EBF0E0808120
:102470008E7F808380818D7F808388E48093B80005
:1024800085E48093BC0081EF99E0909331038093C1
:10249000300382EF99E090932F0380932E030895E9
:1024A0000F920FB6F8940F921F9211242F923F9221
:1024B0004F925F926F927F928F929F92AF92BF9254
:1024C000CF92DF92EF92FF920F931F932F933F9340
:1024D0004F935F936F937F938F939F93AF93BF932C
:1024E000CF93DF93EF93FF93A0910804B091090479
:1024F0000DB60D920EB60D9213BE8091C7028111DA
:10250000F6C08091CA029091CB0201969093CB02C3
:102510008093CA022091CA023091CB022115310565
:1025200099F58091C5039091C6034091C3035091E2
:10253000C4035093C6034093C5039093C403809390
:10254000C3038091CC028F5F8093CC02E091C503DE
:10255000F091C6038081811107C08FEF9FEF9093A8
:10256000C6028093C50210C0E091C503F091C60376
:102570000580F681E02D0680F781E02D8281938130
:102580009093C6028093C5028091C5029091C602C5
:102590002817390708F49AC080E019E0E091C503D4
:1025A000F091C6039081911107C02FEF3FEF309358
:1025B000C6022093C5028BC0E091C503F091C6030B
:1025C0000580F681E02D0680F781E02D4281538160
:1025D0002417350728F45093C6024093C50277C0EC
:1025E000AF014E5F5F4FA285B38564817581E68040
:1025F000F780EB01FD82EC82C681D7817B836A8301
:1026000011966D917C9112974617570721F41296F7
:10261000DC93CE931197138612869C9191509C93D4
:10262000A489B5891097F1F066857785E088F188EF
:10263000EB01FD82EC82C089D1897B836A8311968C
:10264000ED90FC901297BF01645F7F4FE616F7068E
:1026500021F41296DC93CE931197158A148A9C91DB
:1026600091509C93A689909106049A1710F4A09318
:1026700006041A9FD0011124BD016E517C4F7B01CD
:10268000DB011196CD91DC911297D583C4836C81C7
:102690007D81778366836C817D81DB0113965C93FA
:1026A0004E9312975D834C83F386E286E70198810F
:1026B0009F5F9883A0910804B091090446895696BB
:1026C0009C91491708F46ACF81E068CF80E0E091DF
:1026D0000804F0910904E689D9E0ED9FF001112486
:1026E000EE51FC4F9081923040F081E006C0809125
:1026F00029038F5F8093290380E090912A03911131
:1027000003C0882309F46FC08091C702882321F099
:1027100081E080932A0367C010922A03A0910804E5
:10272000B0910904E0910804F09109042D913C91C5
:102730008789908D82179307D8F080910804909133
:1027400009048091080490910904259A2D9A2FEF8D
:1027500067EA71E6215060407040E1F700C0000078
:102760001D9AF5CF8091060481508093060401C024
:1027700099E0E09106049E9FF0011124EE51FC4F78
:102780008081882379F38091060490E049E0489F96
:102790009001499F300D1124F901EE51FC4FA181A8
:1027A000B28112960D90BC91A02DB283A1832B51C2
:1027B0003C4FA217B30731F412962D913C91139719
:1027C0003283218329E0289FF001299FF00D1124F5
:1027D000EE51FC4F0180F281E02D8681978190932C
:1027E000090480930804A0910804B0910904CD91D4
:1027F000CDBFDD91DEBFFF91EF91DF91CF91BF9112
:10280000AF919F918F917F916F915F914F913F9188
:102810002F911F910F91FF90EF90DF90CF90BF907D
:10282000AF909F908F907F906F905F904F903F9070
:102830002F901F900F900FBE0F900895FF920F934F
:102840001F93CF93DF93EC010FB6F8940F928C0196
:102850000F5E1F4FFF24F3948E8D18166CF4898938
:10286000882351F0C8010E94E9188111F0922A03CF
:102870008E8D81508E8FF0CF8FEF8E8F0F900FBE89
:102880000FB6F8940F928E01085F1F4FFF24F39448
:102890008D8D18166CF48885882351F0C8010E942C
:1028A000E9188111F0922A038D8D81508D8FF0CF20
:1028B0008FEF8D8F0F900FBEDF91CF911F910F91F2
:1028C000FF9008950E9450121895CF93DF93FC015A
:1028D000A085B1858281938124813581EC013D837E
:1028E0002C83C481D5819B838A8311968D919C9181
:1028F0001297E817F90721F41296DC93CE931197FB
:10290000118610868C9181508C93DF91CF91089520
:10291000CF93DF939C01FB01DC011196CD91DC91FB
:102920001297D383C2838C819D81958384838C810C
:102930009D81DC0113967C936E9312977D836C834B
:1029400031872087F90180818F5F8083DF91CF916C
:1029500008950F920FB6F8940F921F9211242F92A0
:102960003F924F925F926F927F928F929F92AF921F
:10297000BF92CF92DF92EF92FF920F931F932F930C
:102980003F934F935F936F937F938F939F93AF93F7
:10299000BF93CF93DF93EF93FF93A0910804B0917F
:1029A00009040DB60D920EB60D928091C7028823D0
:1029B00021F081E080932A0367C010922A03A0913E
:1029C0000804B0910904E0910804F09109042D91E4
:1029D0003C918789908D82179307D8F080910804E5
:1029E000909109048091080490910904259A2D9AE8
:1029F0002FEF87EA91E6215080409040E1F700C038
:102A000000001D9AF5CF8091060481508093060442
:102A100001C099E0E09106049E9FF0011124EE515F
:102A2000FC4F8081882379F38091060490E049E08F
:102A3000489F9001499F300D1124F901EE51FC4F40
:102A4000A181B28112960D90BC91A02DB283A18379
:102A50002B513C4FA217B30731F412962D913C91A4
:102A600013973283218329E0289FF001299FF00DDD
:102A70001124EE51FC4F0180F281E02D8681978177
:102A80009093090480930804A0910804B09109046C
:102A9000CD91CDBFDD91DEBFFF91EF91DF91CF9161
:102AA000BF91AF919F918F917F916F915F914F9166
:102AB0003F912F911F910F91FF90EF90DF90CF905A
:102AC000BF90AF909F908F907F906F905F904F904E
:102AD0003F902F901F900F900FBE0F9008950F936F
:102AE0001F93CF93DF938C01FB01808191818F3FF6
:102AF0002FEF920721F4E801AF81B8850EC0D8010D
:102B0000139612962D913C911397E90148815981B2
:102B10008417950710F0D901F4CF12968D919C91EE
:102B2000139793838283EC01FD83EC83B583A483A5
:102B30001396FC93EE93129711870087F80180811A
:102B40008F5F8083DF91CF911F910F910895FC01DA
:102B50000396928381832FEF3FEF34832383968301
:102B600085839087878310820895CF93DF930097A2
:102B700051F0EC010E94811ACE010E940322DF91E4
:102B8000CF910C945519DF91CF910895CF93DF9396
:102B9000EC010E94811ACE010E946B21EC010E947F
:102BA0005519209711F40E948F10CE01DF91CF911B
:102BB0000895CF92DF92EF92FF920F931F93CF93DE
:102BC000DF9300D000D01F92CDB7DEB78C017B0120
:102BD0001D821C8280E0680198E0C90ED11C0FB6EE
:102BE000F8940F92F801228D938D291708F071C087
:102BF000448D41113FC080819181892B09F052C0E1
:102C0000F801E280F380E114F10411F480E02EC0B9
:102C1000F70182A1815082A3268991A12917B1F3DE
:102C20008111F4CF6701F2E0CF0ED11CC6010E94E2
:102C30006514F70181A1868B482F50E024E030E035
:102C4000241B350B3587248790910604981710F4C0
:102C50008093060429E0249FC001259F900D112434
:102C6000B6018E519C4F0E94881481E0F8011382B6
:102C7000128219C050E0B701F801848195810E9449
:102C80009122F801248D84819581820F911D958375
:102C90008483228133818217930720F08081918180
:102CA0009583848380E0F801928D9F5F928F918954
:102CB000992349F0C80141960E94E918813029F40E
:102CC0000E94A91402C08111FBCF0F900FBE81E0BA
:102CD00055C02C813D81232B19F40F900FBE4DC0A0
:102CE000811109C08091CC0289838091CA029091A0
:102CF000CB029B838A830F900FBE0E94811A0FB66E
:102D0000F8940F92F801858D8F3F09F4158EF80124
:102D1000868D8F3F09F4168E0F900FBEBE016C5F3B
:102D20007F4FCE0101960E94B418811121C00FB6C9
:102D3000F8940F92F801928D838D0F900FBE981327
:102D400011C06C817D81C6010E942919C8010E94B1
:102D50001E140E945519882311F081E040CF0E9473
:102D6000A914FBCFC8010E941E140E945519F5CF6B
:102D7000C8010E941E140E94551980E00F900F9008
:102D80000F900F900F90DF91CF911F910F91FF90B7
:102D9000EF90DF90CF900895CF93DF9300D000D0D5
:102DA0001F92CDB7DEB79C018091C8029091C902F5
:102DB000009761F019827B836A833D832C83209185
:102DC0000704222329F02091C70202C080E005C039
:102DD000BE016F5F7F4F0E94D9150F900F900F902B
:102DE0000F900F90DF91CF910895789484B5826011
:102DF00084BD84B5816084BD85B5826085BD85B59F
:102E0000816085BD80916E00816080936E0010921C
:102E10008100809181008260809381008091810097
:102E20008160809381008091800081608093800028
:102E30008091B10084608093B1008091B000816086
:102E40008093B00080917A00846080937A008091B2
:102E50007A00826080937A0080917A00816080930A
:102E60007A0080917A00806880937A001092C10085
:102E70000E94570520E040E850E066E972E08CE9E6
:102E800090E10E941A1D813009F0AEC00FB6F8948F
:102E90000F928091C8029091C902892B09F04BC012
:102EA0008AED92E00E94A71581ED92E00E94A7159D
:102EB0008AED92E09093C4028093C30281ED92E088
:102EC0009093C2028093C10282E590E00E94C615F1
:102ED000EC01009761F14F96998388838AE08B8F8C
:102EE00085E08C8F0FB6F8940F92288139819B8DE5
:102EF0004C8D949FC0011124B901680F791F7B8309
:102F00006A831A8E3D832C83841B9109820F931F41
:102F10009F838E838FEF8D8F8E8FCE0108960E94B8
:102F2000A715CE0141960E94A7150F900FBED09312
:102F3000C902C093C8020F900FBE8091C802909141
:102F4000C902892B09F450C023E045E550E06BE944
:102F500072E087E89AE10E941A1D813009F044C0AE
:102F6000F8942FEF3FEF3093C6022093C502809371
:102F700007041092CB021092CA02A89520EC88E1B7
:102F800090E00FB6F894A895809360000FBE209350
:102F90006000A0910804B0910904CD91CDBFDD91EE
:102FA000DEBFFF91EF91DF91CF91BF91AF919F91E4
:102FB0008F917F916F915F914F913F912F911F91D1
:102FC0000F91FF90EF90DF90CF90BF90AF909F90C8
:102FD0008F907F906F905F904F903F902F901F90B9
:102FE0000F900FBE0F9008950E948F100E945705FA
:102FF0000E94D206FDCFEF92FF920F931F93CF93C3
:10300000DF93E091C302F091C4028081882369F1CB
:103010000580F681E02D00811181C681D7817E0176
:1030200082E0E80EF11CC7010E946514E989FA8963
:10303000CE0109958E85813021F78C859D85800F85
:10304000911F0817190760F49B838A83D987C88763
:10305000B7018091C3029091C4020E946F15D1CF35
:10306000B801CE010E94CC16CCCF8091C1029091C4
:10307000C2029093C4028093C302F093C202E09311
:10308000C102DF91CF911F910F91FF90EF900895B2
:10309000FC0173836283918780874617570778F016
:1030A000421B530B8485958548175907C8F4BF0107
:1030B0006E5F7F4F8091C1029091C2020DC0421796
:1030C000530718F46217730758F4BF016E5F7F4F00
:1030D0008091C3029091C4020E946F1580E0089510
:1030E00081E008950FB6F8940F928091CA029091F2
:1030F000CB020F900FBE0895CF93DF93E0910804A9
:10310000F0910904938382832091CA023091CB020B
:103110008217930770F460910804709109048091FC
:10312000C3039091C4036E5F7F4FDF91CF910C94E6
:103130006F15EC0160910804709109048091C5033A
:103140009091C6036E5F7F4F0E946F158091C502FC
:103150009091C602C817D90720F4D093C602C09335
:10316000C502DF91CF910895FC010FB6F8940F923C
:103170008091CA029091CB02DB012D913C912F3FAF
:10318000BFEF3B0701F1A091CC02B0814181528198
:10319000BA1719F084179507C0F4DC01A41BB50B0E
:1031A000A217B30790F4481B590B240F351FDB01FE
:1031B0002D933C938091CC0280838091CA029091A0
:1031C000CB029283818380E001C081E00F900FBE2B
:1031D00008950F931F93CF93DF93DC011596ED9124
:1031E000FC911697C681D7818E01045F1F4FC801DD
:1031F0000E9465148091C702811114C00A50110900
:10320000C8010E9465148E8990910604981710F4E5
:1032100080930604B9E08B9FC0011124B8018E5140
:103220009C4F03C0B80189ED93E00E948814E0919F
:103230000804F09109049E898689891720F481E0A9
:1032400080932A0301C080E0DF91CF911F910F91FD
:103250000895CF93DF93EB01609108047091090406
:10326000645F7F4F0E946F1580910804909109045C
:1032700002960E946514CF3F8FEFD80761F46091EA
:103280000804709109046E5F7F4F87EC93E0DF9133
:10329000CF910C9488148091CA029091CB028C0F2C
:1032A0009D1FDF91CF910C947C189F92AF92BF929B
:1032B000CF92DF92EF92FF920F931F93CF93DF9302
:1032C0000FB6F8940F928091C70281508093C70285
:1032D0008091C702882311F080E005C180910A0423
:1032E0008823D1F399E0F92EEE24E3948091D90359
:1032F000882351F1E091DE03F091DF03C681D7818D
:10330000CE010C960E9465148E010E5F1F4FC801FE
:103310000E9465148E8990910604981710F480938A
:103320000604F89EC0011124B8018E519C4F0E94E2
:103330008814E0910804F09109049E898689981701
:10334000A8F2E0922A03D2CF80912903811109C00B
:1033500080912A03813009F0BFCF0E94A91481E037
:10336000C2C009E099249394EE24EA94FE2C809143
:103370002903882369F38091C7028111A1C080913C
:10338000CA029091CB0201969093CB028093CA021D
:10339000C090CA02D090CB02C114D10489F58091AB
:1033A000C5039091C6032091C3033091C4033093A9
:1033B000C6032093C5039093C4038093C3038091F5
:1033C000CC028F5F8093CC02E091C503F091C603DD
:1033D0008081811105C0F092C602E092C50210C042
:1033E000E091C503F091C6030580F681E02D0680CB
:1033F000F781E02D828193819093C6028093C5026C
:103400008091C5029091C60210E0C816D90608F452
:1034100048C0E091C503F091C6038081811105C0C9
:10342000F092C602E092C5023CC0E091C503F09163
:10343000C6030580F681E02DC681D7818A819B81F4
:10344000C816D90628F49093C6028093C50229C0F5
:103450005E0182E0A80EB11CC5010E9465148C8932
:103460009D89892B21F0CE010C960E9465148E89CE
:1034700090910604981710F480930604089FC001E9
:103480001124B5018E519C4F0E948814E0910804CC
:10349000F09109049E898689981708F4BACF11E043
:1034A000B8CFE0910804F0910904E6890E9FF0017D
:1034B0001124EE51FC4F8081823040F011E006C0B3
:1034C000809129038F5F8093290310E080912A0364
:1034D000811101C0111190922A038091290381501A
:1034E0008093290344CF0F900FBEDF91CF911F919E
:1034F0000F91FF90EF90DF90CF90BF90AF909F9093
:1035000008958091C7028F5F8093C7020895CF937B
:10351000DF93CDB7DEB72A970FB6F894DEBF0FBEA4
:10352000CDBF94E0C92ED12CE091C302F091C4022A
:103530001081112331F00580F681E02DE080F180CB
:1035400002C0E12CF12C0E94811A0E9472185C01C9
:1035500080912C0390912D03A816B90620F40E94A7
:10356000FB1781E001C080E0B0922D03A0922C03F4
:10357000811189C0112389F1AE14BF04B0F10E94FA
:103580005519E091C302F091C4020580F681E02D47
:1035900006811781C80102960E946514D8011E9603
:1035A0008C911E97813089F41C966D917C911D97AA
:1035B0006E0D7F1D9701A501C8010E94481881303A
:1035C00021F4B701C8010E94CC16D8015196ED91A3
:1035D000FC915297C801099568C0E091C102F09131
:1035E000C2029924939480818111912C0091C80288
:1035F0001091C9020FB6F8940F92F801858D8F3F94
:1036000009F4158ED8015E968C915E978F3F11F468
:103610005E961C920F900FBEF801828D811129C019
:103620006091080470910904645F7F4FC80141965E
:103630000E948814809108049091090402960E94C7
:103640006514F1E09F120BC06091080470910904A9
:103650006E5F7F4F87EC93E00E9488140AC08091D0
:10366000CA029091CB028E0D9F1D8A199B090E9460
:103670007C18C8010E941E140E945519811115C0A2
:103680000E94A91412C00E9455190FC0AA80BB80C5
:10369000F801648575856A0D7B1D9501A701C80138
:1036A0000E944818813009F48BC089E0B82E00913F
:1036B000C8021091C9021A86198680E04801B1E15A
:1036C0008B0E911C0FB6F8940F92F801928D9923EE
:1036D00009F49DC0448D4423C9F050E08681978150
:1036E000840F951F978386832281338182179307E6
:1036F00020F08081918197838683D80116966D9101
:103700007C911797CE0101960E949122F801828D3B
:103710008150828F80819181892BB1F4809108043E
:1037200090910904892B39F0E0910804F091090483
:1037300082A18F5F82A38091080490910904D8012F
:1037400013969C938E931297F8018085882341F0FD
:10375000C80108960E94E918813011F40E94A9144A
:103760000F900FBEA980A7FCA2CF0C811D81D801AC
:103770001A968D919C911B97892B21F0C801029676
:103780000E9465140E9472187C0180912C03909114
:103790002D03E816F90610F40E94FB17F0922D0392
:1037A000E0922C038A2DAA0C990BAA0BBB0B8A3032
:1037B000910508F07CCFFC01EC5CFF4F0C94652177
:1037C000D8015196ED91FC915297C8010995F801E5
:1037D0008685813009F069CF648575856A0D7B1D0A
:1037E000C8010E94CC1661CF6A817B81D8011D96E9
:1037F0007C936E931C976E0D7F1D9701A701C801E6
:103800000E94481852CFC8010E94B5154ECF298595
:103810003A85232B19F40F900FBE86CE811109C073
:103820008091CC028E838091CA029091CB029887BE
:103830008F830F900FBE0E94811A0FB6F8940F92DB
:10384000D8015D968C915D978F3F11F45D961C9227
:10385000F801868D8F3F09F4168E0F900FBEBE01C2
:10386000675F7F4FCE0106960E94B418811182C017
:103870000FB6F8940F92D8015A968C915A970F90E0
:103880000FBE811171C0F80180819181892B09F0EF
:103890005AC00FB6F8940F921296ED90FC901397C1
:1038A000E114F10409F44DC0F7018689E0910804A0
:1038B000F09109049689891708F043C0D7011C9636
:1038C0002D913C911D9737FD0CC0E0910804F091BB
:1038D000090496899601291B31091D963C932E9364
:1038E0001C97B89EC00111248E519C4FF701228570
:1038F000338528173907F1F43701F2E06F0E711C98
:10390000C3010E946514E0910804F09109048689BE
:10391000D70156968C9390910604981710F48093D3
:103920000604B89EC0011124B3018E519C4F0E9421
:10393000881407C0E0910804F09109048689F70112
:10394000868B0F900FBE69857A85C4010E94291964
:10395000C8010E941E140E945519882311F081E0AD
:10396000B1CE0E94A914FBCFC8010E941E140E9470
:103970005519F5CFC8010E941E140E945519D4CDC7
:10398000CF93DF93EC01892B19F40E94A91416C080
:103990000E94811A8091CA029091CB02C80FD91F50
:1039A000809108049091090402960E946514CE014A
:1039B0000E947C180E945519882339F3DF91CF911A
:1039C0000895EBE0F4E01382128288EE93E0A0E029
:1039D000B0E084839583A683B78322E331E031830B
:1039E000208325EC30E03587248724EC30E03787CE
:1039F000268720EC30E0318B208B21EC30E0338BBC
:103A0000228B22EC30E0358B248B26EC30E0378B98
:103A1000268B118E128E138E148EE8EAF4E0138238
:103A2000128284839583A683B78384E491E0918393
:103A3000808308959F92AF92BF92CF92DF92EF92D0
:103A4000FF920F931F93CF93DF93B82EE92E962EFC
:103A5000A72EEA01F22ECA010E94C6156C01892B1D
:103A600009F440C189E290E00E94C6158C010097DC
:103A7000D9F0DC015896DC92CE925797AE0165EAF8
:103A800070E0C6010E949A222197D8015796ED91C5
:103A9000FC915897EC0FFD1FB801675E7F4FA92D71
:103AA000BA2DCD01089607C0C6010E94B5151AC1EE
:103AB000A817B90749F09D014D91EB014993BE014B
:103AC000E90128812111F4CFD80190961C928F2D05
:103AD000B3E0BF1508F483E0E8018E8B89A31AA236
:103AE0001B861A861D8A1C8A1987088724E030E005
:103AF000A901481B51095D874C871B8B0A8B1BA2B0
:103B00001CA21DA21EA218A61FA291E19083DF0194
:103B1000119782E28C93119723E32C931197BC9217
:103B20001197EC9211971C92119720E82C93119702
:103B30001C92119722E02C93119723E02C9311975C
:103B400024E02C93119725E02C93119726E02C93D9
:103B5000119727E02C93119728E02C93119729E0D7
:103B60002C93119720E12C9311979C93119792E13C
:103B70009C93119793E19C93119794E19C931197D7
:103B800095E19C93119796E19C93119797E19C93F3
:103B9000119798E19C93119799E19C93119790E26A
:103BA0009C93119791E29C9311978C93119783E2C8
:103BB0008C9311971C9211971C92119786E28C930B
:103BC000119787E28C93119788E28C93119789E281
:103BD0008C93119780E38C93119781E38C93B69724
:103BE000F983E8830FB6F8940F9280910A048F5FEF
:103BF00080930A048091080490910904892BD1F5DF
:103C0000109309040093080480910A04813009F09C
:103C100040C082EE93E00E94A7158BEE93E00E94D5
:103C2000A71584EF93E00E94A7158DEF93E00E9403
:103C3000A7158DEB94E00E94A71584EB94E00E94F9
:103C4000A71589ED93E00E94A71580ED93E00E94EF
:103C5000A71587EC93E00E94A7158DEB94E0909355
:103C6000C6038093C50384EB94E09093C4038093D0
:103C7000C3030FC08091070481110BC0E0910804B9
:103C8000F09109048689F81620F010930904009336
:103C900008048091C6048F5F8093C604F80186896A
:103CA00090910604981710F480930604B8016E5F93
:103CB0007F4FF9E08F9FC00111248E519C4F0E94CD
:103CC00088140F900FBE80910704882349F0E0917B
:103CD0000804F091090486898F1510F40E94A91434
:103CE00081E001C08FEFDF91CF911F910F91FF9085
:103CF000EF90DF90CF90BF90AF909F9008950E947B
:103D0000C11E08F481E00895E89409C097FB3EF4D1
:103D100090958095709561957F4F8F4F9F4F992318
:103D2000A9F0F92F96E9BB279395F6958795779596
:103D30006795B795F111F8CFFAF4BB0F11F460FF56
:103D40001BC06F5F7F4F8F4F9F4F16C0882311F0AE
:103D500096E911C0772321F09EE8872F762F05C0C2
:103D6000662371F096E8862F70E060E02AF09A955D
:103D7000660F771F881FDAF7880F9695879597F952
:103D80000895990F0008550FAA0BE0E8FEEF1616EC
:103D90001706E807F907C0F012161306E407F5073F
:103DA00098F0621B730B840B950B39F40A2661F0B3
:103DB000232B242B252B21F408950A2609F4A14056
:103DC000A6958FEF811D811D08950E94F81E0C9409
:103DD000691F0E945B1F38F00E94621F20F095232C
:103DE00011F00C94521F0C94581F11240C949D1F19
:103DF0000E947A1F70F3959FC1F3950F50E0551FF5
:103E0000629FF001729FBB27F00DB11D639FAA272F
:103E1000F00DB11DAA1F649F6627B00DA11D661F7E
:103E2000829F2227B00DA11D621F739FB00DA11D9F
:103E3000621F839FA00D611D221F749F3327A00D59
:103E4000611D231F849F600D211D822F762F6A2FF5
:103E500011249F5750409AF0F1F088234AF0EE0F5A
:103E6000FF1FBB1F661F771F881F91505040A9F787
:103E70009E3F510580F00C94521F0C949D1F5F3F94
:103E8000E4F3983ED4F3869577956795B795F795C3
:103E9000E7959F5FC1F7FE2B880F911D969587953B
:103EA00097F9089597F99F6780E870E060E00895BA
:103EB0009FEF80EC089500240A9416161706180642
:103EC0000906089500240A9412161306140605061E
:103ED0000895092E0394000C11F4882352F0BB0FAF
:103EE00040F4BF2B11F460FF04C06F5F7F4F8F4F12
:103EF0009F4F089557FD9058440F551F59F05F3F4D
:103F000071F04795880F97FB991F61F09F3F79F0FB
:103F100087950895121613061406551FF2CF46957D
:103F2000F1DF08C0161617061806991FF1CF8695FF
:103F30007105610508940895E894BB2766277727E3
:103F4000CB0197F908950E94D01FA59F900DB49FB3
:103F5000900DA49F800D911D11240895A1E21A2EA9
:103F6000AA1BBB1BFD010DC0AA1FBB1FEE1FFF1F1D
:103F7000A217B307E407F50720F0A21BB30BE40B6D
:103F8000F50B661F771F881F991F1A9469F76095B4
:103F90007095809590959B01AC01BD01CF0108956E
:103FA000A29FB001B39FC001A39F700D811D11247A
:103FB000911DB29F700D811D1124911D08955058BF
:103FC000BB27AA270E94F71F0C94691F0E945B1F42
:103FD00038F00E94621F20F039F49F3F19F426F454
:103FE0000C94581F0EF4E095E7FB0C94521FE92F38
:103FF0000E947A1F58F3BA17620773078407950760
:1040000020F079F4A6F50C949C1F0EF4E0950B2E8D
:10401000BA2FA02D0B01B90190010C01CA01A0011A
:104020001124FF27591B99F0593F50F4503E68F175
:104030001A16F040A22F232F342F4427585FF3CFB6
:10404000469537952795A795F0405395C9F77EF487
:104050001F16BA0B620B730B840BBAF09150A1F0D0
:10406000FF0FBB1F661F771F881FC2F70EC0BA0F56
:10407000621F731F841F48F4879577956795B795DE
:10408000F7959E3F08F0B0CF9395880F08F09927D9
:10409000EE0F9795879508950E9460200C94691FF4
:1040A0000E94621F58F00E945B1F40F029F45F3F9E
:1040B00029F00C94521F51110C949D1F0C94581F01
:1040C0000E947A1F68F39923B1F3552391F3951B4E
:1040D000550BBB27AA2762177307840738F09F5F29
:1040E0005F4F220F331F441FAA1FA9F335D00E2E96
:1040F0003AF0E0E832D091505040E695001CCAF703
:104100002BD0FE2F29D0660F771F881FBB1F2617C5
:1041100037074807AB07B0E809F0BB0B802DBF019C
:10412000FF2793585F4F3AF09E3F510578F00C946B
:10413000521F0C949D1F5F3FE4F3983ED4F3869585
:1041400077956795B795F7959F5FC9F7880F911D8C
:104150009695879597F90895E1E0660F771F881F78
:10416000BB1F621773078407BA0720F0621B730B2B
:10417000840BBA0BEE1F88F7E09508950E94C520C6
:104180006894B1110C949D1F08950E94821F88F0BD
:104190009F5798F0B92F9927B751B0F0E1F0660F0B
:1041A000771F881F991F1AF0BA95C9F714C0B1304C
:1041B00091F00E949C1FB1E008950C949C1F672F02
:1041C000782F8827B85F39F0B93FCCF3869577957B
:1041D0006795B395D9F73EF4909580957095619564
:1041E0007F4F8F4F9F4F08950E94C11E08F48FEF9D
:1041F000089519F416F40C94581F0C9444210E944D
:10420000821FB8F39923C9F3B6F39F57550B87FF65
:104210000E9452210024A0E640EA90018058569561
:10422000979528F4805C660F771F881F20F026176B
:104230003707480730F4621B730B840B20293129A0
:104240004A2BA69517940794202531254A2758F71D
:10425000660F771F881F20F026173707480730F4AE
:10426000620B730B840B200D311D411DA09581F74E
:10427000B901842F9158880F9695879508950E94CB
:10428000C11E880B990B08959F3F31F0915020F487
:10429000879577956795B795880F911D9695879522
:1042A00097F9089591505040660F771F881FD2F7F5
:1042B0000895991B79E004C0991F961708F0961B82
:1042C000881F7A95C9F780950895EE0FFF1F059016
:1042D000F491E02D09940F931F93CF93DF938230D5
:1042E000910510F482E090E0E091C904F091CA04D5
:1042F00020E030E0A0E0B0E0309719F1408151813A
:104300000281138148175907C8F08417950769F48B
:10431000109731F012960C93129713961C9327C0A6
:104320000093C9041093CA0422C02115310519F065
:104330004217530718F49A01BD01EF01DF01F8019C
:10434000DBCF21153105F9F0281B390B243031055D
:1043500080F48A819B816115710521F0FB019383B3
:10436000828304C09093CA048093C904FE013296EC
:1043700044C0FE01E20FF31F819391932250310953
:10438000398328833AC02091C7043091C804232B75
:1043900041F420910E0130910F013093C804209315
:1043A000C70420910C0130910D012115310541F414
:1043B0002DB73EB74091100150911101241B350BD0
:1043C000E091C704F091C804E217F307A0F42E1B94
:1043D0003F0B2817390778F0AC014E5F5F4F241769
:1043E000350748F04E0F5F1F5093C8044093C70431
:1043F0008193919302C0E0E0F0E0CF01DF91CF9193
:104400001F910F910895CF93DF93009709F481C016
:10441000FC01329713821282A091C904B091CA04A0
:10442000109781F420813181820F931F2091C7045E
:104430003091C8042817390751F5F093C804E09368
:10444000C70467C0ED0120E030E0CE17DF0740F47D
:104450004A815B819E0141155105F1F0EA01F5CFDA
:10446000D383C28340815181840F951FC817D90718
:1044700059F488819981840F951F029691838083D6
:104480008A819B81938382832115310529F4F093DE
:10449000CA04E093C9043DC0E901FB83EA83499162
:1044A0005991C40FD51FEC17FD0761F480819181EC
:1044B000840F951F0296E9019983888382819381F5
:1044C0009B838A83E0E0F0E012968D919C91139794
:1044D000009719F0FD01DC01F7CF8D919C911197A8
:1044E0009D012E5F3F4F820F931F2091C704309193
:1044F000C8042817390769F4309729F41092CA04C0
:104500001092C90402C013821282B093C804A0930F
:10451000C704DF91CF91089581E090E0F8940C9466
:10452000B022FB01DC0102C001900D9241505040CD
:10453000D8F70895DC0101C06D9341505040E0F779
:104540000895FB01DC014150504048F001900D926C
:104550000020C9F701C01D9241505040E0F7089576
:04456000F894FFCFFD
:10456400333303400AD7A33B333363400000CB0407
:1045740080000000000000000000780ADC06DC0671
:1045840000000000770A790A780AC40A7B0A00004E
:10459400000063069005BA05B0062B06C905DD05C3
:1045A40000000000440A170A740AF309B709030A51
:1045B400F409436F756C64206E6F742066696E64D1
:1045C40020612076616C6964204C3347343230308A
:1045D400442073656E736F722C20636865636B206F
:1045E400776972696E672100436F756C64206E6F22
:1045F400742066696E6420612076616C6964204170
:1046040044584C3334352073656E736F722C2063B9
:104614006865636B20776972696E67210054686509
:104624002062616C616E63696E672061726D2069DE
:1046340073206E6F772061726D6564210054686524
:104644002062616C616E63696E672061726D2069BE
:1046540073206E6F772064697361726D65642100E5
:104664004368616E67696E67206465736972656427
:1046740020616E676C6520746F3A20004368616E38
:1046840067696E672050206761696E20746F3A20F5
:10469400004368616E67696E672049206761696ECF
:1046A40020746F3A20004368616E67696E67204426
:1046B400206761696E20746F3A20004465736972E3
:1046C400656420616E676C653A20002063757272C0
:1046D400656E7420616E676C653A2000494D550023
:1046E40053657269616C006E616E00696E66006F7D
:1046F4007666000D0A0049444C4500546D722053FF
:0C4704007663004144584C33343500000B
:00000001FF
